:100000002DC045C044C043C04DC041C040C03FC0EA
:100010003EC03DC03CC03BC03AC039C038C037C00C
:1000200036C035C034C0FFFF0E3CF0F03C0EFFFF81
:100030000060F49494FCF88000FFFF3078FCCC80E2
:100040000078FCD4D4DC580000000EDFDF0E000086
:1000500000000000000000000026000011241FBE68
:10006000CFEDCDBF10E0A0E6B0E0ECE1F1E002C0E2
:1000700005900D92A236B107D9F710E0A2E6B0E0E4
:1000800001C01D92A336B107E1F739D045C0B8CF02
:1000900020ED37E004C0F9013197F1F7019700979F
:1000A000D1F708951F920F920FB60F9211242F933C
:1000B0003F938F939F93EF93FF938091620090E023
:1000C00020916000309161008217930714F0109224
:1000D000620080916200E82FF0E0EA5DFF4FE4915A
:1000E000E8BB8F5F80936200FF91EF919F918F91AA
:1000F0003F912F910F900FBE0F901F9018958FEF8B
:1001000087BB89E08EBD80E197E29BBD8ABD89B740
:0C011000806489BF7894FFCFF894FFCF83
:02011C003300AE
:00000001FF
