:1000000012C02AC029C028C032C026C025C024C0C2
:1000100023C022C021C020C01FC01EC01DC01CC0E4
:100020001BC01AC019C011241FBECFEDCDBF10E0F8
:10003000A0E6B0E0EAEEF0E002C005900D92A43731
:10004000B107D9F710E0A4E7B0E001C01D92A537D1
:10005000B107E1F73BD047C0D3CF20ED37E004C074
:10006000F9013197F1F701970097D1F708951F92A1
:100070000F920FB60F9211242F933F938F939F935C
:10008000EF93FF938091740090E020916000309195
:1000900061008217930714F010927400809174002D
:1000A000E82FF0E0EE0FFF1FEE59FF4F908198BB55
:1000B0008F5F80937400FF91EF919F918F913F919B
:1000C0002F910F900FBE0F901F9018958FEF87BB49
:1000D00089E08EBD80E197E29BBD8ABD89B78064CF
:0A00E00089BF7894FFCFF894FFCF9A
:1000EA0009000000000000000000000000000000FD
:0400FA000000000002
:00000001FF
