:1011CE00766C696D69743A2000563A200054563A8E
:1011DE002000413A20002070776D3A0069723A0083
:0F11EE006261642069722020006476633E3500E0
:100FA40001400001450B042B000000000446000032
:100FB4000000042F40E0000004273F8CCCCD044106
:100FC40000000000013F000233000004390000006B
:100FD40000043500000000013E00013D0002210034
:090FE400000223000002250000B8
:1012E9001207FC1210E5E4FDFF12133812134A7FAE
:0512F9006412129022B6
:10096A00E5344533600241680522E522AE21700272
:10097A00052114C3942CEE648094814006E5244535
:10098A00236025E5344533701FFDFF1213387F02BB
:10099A0012126EEF605EE4FFFEFDFCAB32AA31A9D3
:1009AA0030A82F1202BC70457532CD7531CC753026
:1009BA00DC752F40752A9A75299975289975273FEC
:1009CA00753300753401E4FDFF1213387BFF7A1189
:1009DA0079CE121249E4FFFE7DC87C42AB32AA31BD
:1009EA00A930A82F120116120367120EAC75330034
:1009FA00753402227F0812126EEF60080524E5247E
:100A0A00700205237F0412126EEF600EE52445235F
:100A1A006008E524152470021523E4FDFF1213383B
:100A2A007BFF7A1179CE121249AC23AD24EC120362
:100A3A002E7B337A3379B3783F1201168F328E3197
:100A4A008D308C2FE4FFFE7DC87C42AB32AA31A9DF
:0F0A5A0030A82F120116120367120EAC21722260
:100C8500120A698F498E488D478C46E4FDFF121381
:100C9500387BFF7A1179D7121249E4FFFE7DC87CB3
:100CA50042AB49AA48A947A8461201161203671282
:100CB5000EAC7BFF7A1179DB121249E4FFFE7DC889
:100CC5007C42AB3CAA3BA93AA8391201161203672C
:100CD500120EAC120DA88F2E8E2D8D2C8C2B7D0116
:100CE500E4FF1213387BFF7A1179E0121249E4FF11
:100CF500FE7DC87C42AB2EAA2DA92CA82B1201166D
:100D0500120367120EAC7BFF7A1179E4121249AF18
:070D1500407E0012075B2283
:1011FD00E4F54CF54D1212E9121369D2AFE4FF126A
:10120D0012AFE5344533700312096A120C851204CE
:07121D007112080080EC22B1
:100F2B00E4F556755601AD56ED3395E0FCC3ED95E2
:100F3B00457480F86C985060120DA88F2E8E2D8DF5
:100F4B002C8C2BAF2AAE29AD28AC27AB2EAA2DA902
:100F5B002CA82B1202BC500B0540E54095454003D5
:100F6B00854540AF2AAE29AD28AC27AB2EAA2DA9BB
:100F7B002CA82B1202BC60124010E540D394004009
:100F8B00021540E5407003754001AF407E00120032
:090F9B000E120C850556808E2211
:10047100E4F555F554F553F552FFFEFD7C3FAB49CC
:10048100AA48A947A8461202BC4016E4FFFE7D20F7
:100491007C41AB49AA48A947A8461202BC60164054
:1004A10014E4F53F120C85D2A77F32121290C2A735
:1004B1007F96121290E53F64017002E15AE4FFFE5B
:1004C10012000E7F641212907F64121290120C853A
:1004D100120A698F498E488D478C468F558E548DEF
:1004E100538C527FCD7ECC7D4C7C3FAB49AA48A931
:1004F10047A8461202BC60194017E4FFFE7D107C3C
:1005010041AB49AA48A947A8461202BC5003753F0E
:1005110001E53F7002E15A7F037E0012000E7F96D3
:10052100121290120A698F498E488D478C46120D1E
:10053100A88F2E8E2D8D2C8C2B7F82121290AB4981
:10054100AA48A947A846C000C001C002C003120AB8
:1005510069D003D002D001D0001200258F498E4806
:100561008D478C46AB2EAA2DA92CA82BC000C0010B
:10057100C002C003120DA8D003D002D001D00012D6
:1005810000258F2E8E2D8D2C8C2B7F82121290ABFD
:1005910049AA48A947A846C000C001C002C0031229
:1005A1000A69D003D002D001D0001200258F498EF4
:1005B100488D478C46AB2EAA2DA92CA82BC000C074
:1005C10001C002C003120DA8D003D002D001D00097
:1005D1001200258F2E8E2D8D2C8C2B7F8212129046
:1005E100AB49AA48A947A846C000C001C002C00340
:1005F100120A69D003D002D001D0001200258F4920
:100601008E488D478C46AB2EAA2DA92CA82BC00055
:10061100C001C002C003120DA8D003D002D001D086
:10062100001200258F2E8E2D8D2C8C2B7F82121285
:1006310090AB49AA48A947A846C000C001C002C062
:1006410003120A69D003D002D001D0001200258F15
:10065100498E488D478C46AB2EAA2DA92CA82BC0BC
:1006610000C001C002C003120DA8D003D002D00106
:10067100D0001200258F2E8E2D8D2C8C2BAF49AEE4
:1006810048AD47AC46E4FBFA79A0784012021F8FCF
:10069100498E488D478C46AF2EAE2DAD2CAC2BE448
:1006A100FBFA79A0784012021F8F2E8E2D8D2C8C93
:1006B1002BE4FFFE12000EAB55AA54A953A852AF6A
:1006C10049AE48AD47AC46120021AB2EAA2DA92C4C
:1006D100A82B12021F8F448E438D428C41E4FD7F73
:1006E100091213387BFF7A1179EA121249E4FFFEED
:1006F1007D7A7C44AB44AA43A942A8411201161257
:10070100036712075BE4FFFE7DC07C3FAB44AA4355
:10071100A942A8411202BC602B4029E4FD7F0912C5
:1007210013387BFF7A1179EE1212497F641212900D
:100731007F641212907F641212907F641212907F74
:10074100641212907F017E0012000E7F64121290DB
:0A075100120C85754001120F2B22D7
:10080000E53F70022169E540700221500526E5268A
:10081000AE257002052514C39464EE648094805064
:10082000022169E53464024533600201E4AF3CAE65
:100830003BAD3AAC39AB49AA48A947A8461202BC1D
:10084000604B4049053DD3E53D64809485403BAB1A
:100850003CAA3BA93AA839C000C001C002C003AFFE
:1008600049AE48AD47AC46120021E4FBFA79A078C6
:100870004012021FD003D002D001D0001200258FF9
:100880003C8E3B8D3A8C39E4F53DE4F53EAB49AA0C
:1008900048A947A846AF3CAE3BAD3AAC391200215F
:1008A0007B587A3979B4783C1202BC5008053E7501
:1008B0002500752632D3E53E648094854026E4FD0C
:1008C0007F091213387BFF7A1179F71212497F647E
:1008D0001212907F641212907F641212907F641241
:1008E0001290806CE5346402453360157F0A7ED730
:1008F0007DA37C3DAB2EAA2DA92CA82B1202BC40B7
:100900004FE53464024533603FAF2EAE2DAD2CACC5
:100910002BAB44AA43A942A841120116AB32AA311B
:10092000A930A82F120025AB49AA48A947A846120A
:1009300002BC60144012E540D3940040021540E42C
:10094000F525F526E5406008AF407E0012000E2236
:10095000120C85D2A77F32121290C2A77F96121274
:0A09600090E4F540FFFE12000E22A5
:051396001FEF70FC22B6
:10129000AE07AF061EEF60167FC91213967FCF12FE
:0F12A00013967FCF1213967FCF12139680E422FE
:1012AF00AD07AF051DEF60167FFA1212907FFA128D
:0F12BF0012907FFA1212907FFA12129080E4229E
:060FED00011E00011F00BF
:0307FC00C2902286
:10122400C0D0E51FC3951E4004C2908009E51ED3BB
:1012340094004002D290051FE51FC394144003E4B8
:05124400F51FD0D022CF
:0C000E00D3EF9414EE940050028F1E22D9
:0E135B00C2AFC290C2A9751F15C290D2AF22B8
:0B138500C2AFC290D2A9C290D2AF222A
:03139B00AF1E2260
:0D0FF300046B40A28F5C02620000016800E8
:100B2800E4F560F561C294D292C2917F01121396E6
:100B3800D2947F01121396C2947F01121396D29217
:100B4800D2947F01121396C2947F01121396A200C9
:100B58009292D2947F01121396C294D2937F01127B
:100B68001396E4F55FE55FC394085024D2947F019F
:100B7800121396C2947F0112139630930FAF5F74CD
:100B880080A807088002C313D8FC4260055F80D59F
:100B9800E4F55FE55FC3940850247F011213963093
:100BA800930FAF5F7401A807088002C333D8FC42D3
:100BB80061D2947F01121396C294055F80D5D291B9
:0F0BC800D293D294E560B56103AF6122AF602292
:100A6900E4F55AF559F558F557D200120B28756473
:100A7900008F65D3E5639565E5629564400EE5638E
:100A89009565F567E5629564F566800DC3E565953D
:100A990063F567E5649562F566D3E5679403E566F2
:100AA900940040088564628565638011E566C31317
:100AB900FEE567132563F563EE3562F562120DA84D
:100AC9008F5A8E598D588C57AC62AD63E412032E40
:100AD900E4FBFA797F784312021FAB6EAA6DA96C09
:100AE900A86B1201167B337A3379F3783F1201161A
:100AF900C004C005C006C0077F7B7E147D2E7C3EE6
:100B0900AB5AAA59A958A857120116A804A905AAA7
:0F0B190006AB07D007D006D005D004120021226A
:100DA800E4F55EF55DF55CF55BC200120B288F6912
:100DB800E568D395694008E5689569F56A8007C3D1
:100DC800E5699568F56AE56AD3940540058569681B
:100DD8008008E56AC3132568F568AC68E412033334
:100DE800E4FBFA797F784312021FAB6EAA6DA96CF7
:100DF800A86B1201168F5E8E5D8D5C8C5BE4FBFA2E
:100E08007998784112021F8F5E8E5D8D5C8C5B7BBA
:100E18007B7A14792E783E12021F8F5E8E5D8D5C70
:030E28008C5B22BE
:0E100000031AC0F9A4011D0001190001180017
:100E2B00EFB410005076900E3725E073C157C15CBC
:100E3B00C161C166C16BC170C175C17AC17FC1840B
:100E4B00C189C18EC193C198C19DC1A27E007FC0D3
:100E5B00227E007FF9227E007FA4227E007FB022BB
:100E6B007E007F99227E007F92227E007F82227EEF
:100E7B00007FF8227E007F80227E007F90227E0002
:100E8B007F88227E007F83227E007FC6227E007FAA
:100E9B00A1227E007F86227E007F8E227E007FFF36
:010EAB002224
:10131200EF30E002D2B4EF30E102D2B5EF30E202B8
:03132200D2B6221E
:10132500EF30E002C2B4EF30E102C2B5EF30E202C5
:03133500C2B6221B
:101127007F0F121325E4F552E552D394095010AFFF
:1011370052120E2B8F807F0A121290055280E9E41B
:10114700F552E552D394095013AF52120E2BEF54B8
:0D1157007FF5807F0A121290055280E6227B
:10101800C0D075D008741A2519F8E64480F6E51D85
:10102800C394035009741A251DF8E6547FF67F0F00
:10103800121312741A2518F8E6F580AF187401A86F
:101048000F088002C333D8FCFF1213250518E518D2
:09105800B40303E4F518D0D02222
:10134A007F0F1213121211277F0F121312751D64C9
:01135A002270
:10106100AB07AA067C007D64120401120E2B8F1AB5
:101071007C007D64AF03AE02120401AA04AB057CBF
:10108100007D0AAF03AE02120401120E2B8F1B7CEE
:10109100007D0AAF03AE02120401AF05120E2B8FC1
:0210A1001C220F
:03139E008F1D227E
:1010A300AB07AA067C007D64120401120E2B8F1A73
:1010B3007C007D64AF03AE02120401AA04AB057C7D
:1010C300007D0AAF03AE02120401120E2B8F1B7CAC
:1010D300007D0AAF03AE02120401AF05120E2B8F7F
:0210E3001C22CD
:06100E00047C000000005C
:0E136900438902758CC4758DC4D2A9D28C2222
:03000B000212CE10
:1012CE00C0E0C0F0C083C082C0D075D0101212240E
:0B12DE00D0D0D082D083D0F0D0E0321E
:0E137700438910758DDF758B75D2ABD28E2237
:03001B000211646B
:10116400C0E0C0F0C083C082C0D075D0081210188F
:10117400AF7FAE7EAD7DAC7CE47B01FAF9F812045E
:10118400568F7F8E7E8D7D8C7C758DDF758B75D0B3
:0A119400D0D082D083D0F0D0E0323A
:10126E008F5243B00EE5B0555270147F0512129096
:10127E00E5B055527009E5B0555260FA7F01227FF4
:02128E0000223C
:03101400017B005D
:10119E00EFC454F0FEEFC4540F4EFF5433FE25E05F
:1011AE0025E0FEEF54CCFD1313543F4EFF5455FE75
:1011BE0025E0FEEF54AAFDC3134EFFC4540FFF22C9
:060003007F051213962296
:0607F6007F321212902276
:100BD7008F5A8D5B120003537BCFE57B5470FFE583
:100BE700A0548F4FF5A0E55B6005537BBF8003439F
:100BF7007B40E57B5470FFE5A0548F4FF5A01200B2
:100C070003537BF0E55AC4540F427BE57B540FFF37
:100C170012119EE5A054F04FF5A0120003437B107C
:100C2700E57B5470FFE5A0548F4FF5A012000353E6
:100C37007BEFE57B5470FFE5A0548F4FF5A01200C2
:100C470003537BF0E55A540F427BE57B540FFF12A9
:100C5700119EE5A054F04FF5A0120003437B10E569
:100C67007B5470FFE5A0548F4FF5A0120003537B10
:0E0C7700EFE57B5470FFE5A0548F4FF5A022EF
:1010E500C2A77D017F33120BD71207F67D017F3230
:1010F500120BD71207F67D017F28120BD71207F6C0
:101105007D017F0C120BD71207F67D017F06120BAE
:10111500D71207F67D017F01120BD71207F61207CA
:02112500F622B0
:10133800ED60047EC080027E80EE2FFF7D01120BDF
:02134800D722AA
:101249008B578A588959AB57AA58A9591203E8FFED
:101259006012E4FD120BD774012559F559E435588C
:05126900F55880E222AF
:1012FE00AE07C3EE6480948A5005EE2430FF22EED2
:04130E002457FF223F
:10075B00AB07AA067C277D101204011212FE8F6FC5
:10076B007C277D10AF03AE02120401AA04AB057CFB
:10077B00037DE8AF03AE021204011212FE8F707CF0
:10078B00037DE8AF03AE02120401AA04AB057C00A3
:10079B007D64AF03AE021204011212FE8F717C0056
:1007AB007D64AF03AE02120401AA04AB057C007D8D
:1007BB000AAF03AE021204011212FE8F72AE02AF29
:1007CB00037C007D0A120401AF051212FE8F73E445
:1007DB00F574E56FB4300A7B007A00797012124918
:0B07EB00227B007A00796F1212492275
:100EAC00AB07AA067C037DE81204011212FE8F75B3
:100EBC007C037DE8AF03AE02120401AA04AB057CEF
:100ECC00007D64AF03AE021204011212FE8F767C19
:100EDC00007D64AF03AE02120401AA04AB05757762
:100EEC002E7C007D0AAF03AE021204011212FE8F9B
:100EFC00787C007D0AAF03AE02120401AF0512121A
:100F0C00FE8F79E4F57AE575B4300A7B007A0079C6
:0F0F1C0076121249227B007A007975121249224F
:06139000E4FD120BD72260
:10001E000203D3E86480F8E933E83360110460F03A
:10002E00ED33EC337009E8FCE9FDEAFEEBFF220448
:10003E0060DED3EB9FEA9EE99DE8C2E78CF0C2F743
:10004E0095F0400CE8CCF8E9CDF9EACEFAEBCFFB0F
:10005E0012039E85D0F05804700320D5B3E80470C7
:10006E00075002B2D50203DD92D5EC0460F7E4CC62
:10007E00C0E0C398F8603B94186008400DD0E0FBD8
:10008E000203B5E4FBFAC9FC8028E830E406E4C9B3
:10009E00FBE4CAFCE830E305E4C9CACBFCE854072C
:1000AE006010F8C3E913F9EA13FAEB13FBEC13FC37
:1000BE00D8F130F52FC3E49CFCEF9BFFEE9AFEEDDA
:1000CE0099FDD0E0FBEF4E4D4C701222DB03020384
:1000DE00DAEC2CFCEF33FFEE33FEED33FDED30E7C3
:1000EE00EB0203B5EF2BFFEE3AFEED39FDD0E0FB50
:1000FE0050130BBB00030203DDED13FDEE13FEEFF9
:08010E0013FFEC13FC0203B522
:10011600EC4D6011E8497017ED33EC3304600DE4E3
:10012600FCFFFEFD22E933E8330470F80203D31224
:10013600039E58046009E4CC248150062850090225
:1001460003DD2840030203DAC0E0EB4A7044B980BD
:1001560006D0E0FB0203C9EF4E701CBD8008EBFF22
:10016600EAFEE9FD80EBE98DF0A4FEE5F00201FF71
:10017600E9CDF9EAFEEBFFEF89F0A4FCE5F0CE89C4
:10018600F0A42EFFE435F0CD89F0A42DFEE435F081
:100196008067EF4E7005BD80D780C3EF8BF0A4ACAF
:1001A600F0EE8BF0A42CFCE435F0F8EF8AF0A42CEA
:1001B600E5F038FCE433CB8DF0A42CFCE5F03BF8FD
:1001C600EE8AF0A42CFCE5F038F8E433CF89F0A4ED
:1001D6002CFCE5F038CF3400CE89F0A42FFFE5F0F3
:1001E6003EFEE433C98DF0A42EFEE5F039CD8AF04B
:1001F600A42FFFE5F03EFEE43DFD33D0E0FB5007C3
:100206000BBB000F0203DDEC2CFCEF33FFEE33FEDD
:06021600ED33FD0203B50B
:10021C000203DDEC5D046005E8590470030203D3AE
:10022C0012039E580460F6EC4860F2EC7004FDFE7C
:10023C00FF22C860DB2481C85009C39860025006B5
:10024C000203DA9850CAF582E9294B4A7005AB8251
:10025C000203C975F0007C1A7880C3EF9BEE9AED0F
:10026C0099400DC3EF9BFFEE9AFEED99FDE842F02D
:10027C00DC23ACF0D0E0FFD0E0FED0E0FDAB822080
:10028C00E7101BEB60BAEC2CFCEF33FFEE33FEED0A
:10029C0033FD0203B5E803F830E705C0F075F00054
:1002AC00EF2FFFEE33FEED33FD40B830E7C280AAEE
:1002BC0074F8CC6480CCC86480C8F582046043C3F5
:1002CC00EB9FF5F0EA9E42F0E99D42F0E89C45F088
:1002DC0060305018E5825FFFE582F42B5582FB50AD
:1002EC00210ABA001D09B90019088016E5825BFBCA
:1002FC00E582F42F5582FF50090EBE00050DBD009E
:10030C00010CC3EB9FF5F0EA9E42F0E99D42F0E848
:0D031C009C45F06007CC4820E701B3EC22BF
:1003290075F020800E75F010800575F0087D007E4F
:10033900007F003392D530D503120463EC334010AB
:10034900EF33FFEE33FEED33FDEC33FCD5F0ED2258
:0E035900E5F0247EA2D513CC92E7CDCEFF2294
:10036700EDD2E7CD33EC3392D524814006E4FFFE8E
:10037700FDFC22FCE4CFCECDCC24E0501174FF80ED
:10038700EDC3CC13CCCD13CDCE13CECF13CF04708A
:07039700F030D5DE02046323
:10039E00E9D2E7C933E833F892D5EDD2E7CD33ECA5
:0703AE0033FC5002B2D5221E
:1003B500EC30E7100FBF000C0EBE00080DBD0004A9
:1003C5000BEB6014A2D5EB13FCED92E7FD2274FF55
:1003D500FCFDFEFF22E480F8A2D574FF13FC7D80AE
:0303E500E480EFC2
:03000000020D1CD2
:0C0D1C00787FE4F6D8FD75817F020D633E
:1003E800BB010689828A83E0225002E722BBFE0213
:0903F800E32289828A83E4932246
:10040100BC000BBE0029EF8DF084FFADF022E4CCDF
:10041100F875F008EF2FFFEE33FEEC33FCEE9DECA8
:10042100984005FCEE9DFE0FD5F0E9E4CEFD22EDEE
:10043100F8F5F0EE8420D21CFEADF075F008EF2F38
:10044100FFED33FD4007985006D5F0F222C398FD29
:050451000FD5F0EA22C6
:0D045600EF2BFFEE3AFEED39FDEC38FC22F5
:0E046300C3E49FFFE49EFEE49DFDE49CFC22AA
:100D28000211FDE493A3F8E493A34003F68001F2D3
:100D380008DFF48029E493A3F85407240CC8C333CC
:100D4800C4540F4420C8834004F456800146F6DF9B
:100D5800E4800B0102040810204080900FA4E47E78
:100D6800019360BCA3FF543F30E509541FFEE49390
:100D7800A360010ECF54C025E060A840B8E493A357
:100D8800FAE493A3F8E493A3C8C582C8CAC583CA82
:100D9800F0A3C8C582C8CAC583CADFE9DEE780BE3A
:0110170000D8
:00000001FF
