:0E005600E4FFFE0FBF00010EBE13F8BF88F5D9
:010064002279
:0300320012003584
:0E003500E4FFFE0FBF00010EBE75F8BF30F5F0
:01004300229A
:0F006500D2A0120056D2A1120056D2A20200560B
:09000300120035120065120035EF
:0F000C00C2A0120056C2A1120056C2A202005694
:10004400D2A0120032D2A1120032D2A21200350282
:02005400003575
:10001B0012004412003512003512003512000C127A
:07002B00000312000380E94D
:0300000002007487
:0C007400787FE4F6D8FD75810702001BC0
:00000001FF
