:1000000009C021C020C01FC01EC01DC01CC01BC015
:100010001AC019C011241FBECFE9CDBF10E0A0E661
:10002000B0E0ECE7F2E003C0C89531960D92A2363D
:10003000B107D1F710E0A2E6B0E001C01D92A236F0
:10004000B107E1F787C0DCCF86B380E090E0089588
:10005000E0E0F0E022E018BAAE2FBF2F1197F1F7E1
:10006000C09AC19AC29A8E2F9F2F0197F1F7215003
:1000700027FFF1CF0895CF93DF93809161009927F7
:10008000282F392F2270307084709070A0E1B7E271
:10009000C0E0D0E046E0232B89F4892B89F5C7988E
:1000A000C798DB2FCA2F2197F1F7C19AC29A8A2FDE
:1000B0009B2F0197F1F7415092F731C0892B81F0C6
:1000C000C198C2988A2F9B2F0197F1F7C19AC29AC3
:1000D000FB2FEA2F3197F1F7415047FFF1CF1FC0B7
:1000E000C198C798FB2FEA2F3197F1F7C19AC29AAE
:1000F000DB2FCA2F2197F1F7415047FFF1CF0FC0F7
:10010000C798C298DB2FCA2F2197F1F7C19AC29ADC
:100110008A2F9B2F0197F1F7415047FFF1CFDF91D5
:10012000CF91089523E82FBD81E083BF12BE16BE94
:1001300088BD089586BF0895C29AC198C098A0ED61
:10014000B7E01197F1F7C09AC298C19A80E08A95FA
:10015000F1F70895CFE9D0E0DEBFCDBF8FEF87BBC9
:1001600088BBE0E0F0E022E018BACE2FDF2F219725
:10017000F1F7C09AC19AC29AAE2FBF2F1197F1F72B
:10018000215027FFF1CFBB98C39A33E83FBD21E050
:1001900023BF12BE16BE28BD30916100832F992760
:1001A000482F592F44705070A0E1B7E2C0E0D0E072
:1001B00026E081FD2EC0452B09F03DC0C798C798A9
:1001C0008A2F9B2F0197F1F7C19AC29AFB2FEA2F32
:1001D0003197F1F7215027FFF1CFC39BDFCF8091FB
:1001E00060008C5E3F5F373008F032E086BF8F3FA3
:1001F00009F441C080936000832F9927482F592F1D
:1002000044705070A0E1B7E2C0E0D0E026E081FF8A
:10021000D2CF452B01F1C198C298FB2FEA2F31971D
:10022000F1F7C19AC29ADB2FCA2F2197F1F721501B
:1002300027FFF1CFD2CFC798C2988A2F9B2F019763
:10024000F1F7C19AC29AFB2FEA2F3197F1F72150AB
:1002500027FFF1CFC2CFC198C798DB2FCA2F2197B4
:10026000F1F7C19AC29A8A2F9B2F0197F1F721507B
:0C02700027FFF1CFB2CF1092600090CFBA
:02027C008002FE
:00000001FF
