:03000000020800F3
:100030007403787FF618B80FFBE4F6D8FCE4F58B70
:10004000F58DF50CF598750DFB7C4B750E5A850EEC
:100050000A900724C288C2D1C29AD28AD29B7B015D
:10006000750B0181B3B1BDB1D3B1BD058C2088063C
:100070007E1DB1D901E1B1DA7E0E7810790000B1B0
:10008000A77F0874FF5608DFFC20E5028002A90064
:10009000B1FCDEEA7E0DB1A7E9B5001024F8F974D1
:1000A0000A91EA900708C2D1B1F1801574F828F8D6
:1000B000B1DBDEE2B1A730D10281B37E01B1D8015C
:1000C000E1B1A77F041918E7F61918E7F6DFF6B1D2
:1000D000FEDEEEB1A77818187603B810FAB1F60173
:1000E000E7B1A7B1D5DEFAB1A7E5904483FD44930B
:1000F000B4FF028003430510B1DBB1A7B1967E14B3
:1001000078107920D100B1A7B1968582F0D1010095
:1001100000B1A7E598C4035407FFB1FDD2B3208A0C
:1001200028BE0B00DE0A7466C0E07401C0E0213A0C
:100130007411C0E07401C0E0000000EF3F23FF2312
:10014000232F90050A75B00373E58CA2E595E05462
:100150003CB1F375B00300C362B062B062B062B08C
:10016000DEAD8002C300B1A7000000E80303358DB7
:090170005420440C62B062B0E6B8
:1001790075B00BF5B00886B00886B00886B0088659
:10018900B00886B00886B00886B0740375B00BF560
:10019900B0B91000D908792008B880BF21AF530041
:1001A90078007E082166B1A7B1F8D2B3B1ECC2B329
:1001B900B1FDDEF2B1A7B196B1FDB1A7B19685F057
:1001C90082758307D101B1A720D115D50B14E4930A
:1001D900FBE4A393F50BA3B4020092D1B1FD21ED89
:1001E9000000B1EB309A1FBDFB0201307E0C20D11B
:1001F90007758C00B1FE8139900796E58C24FF9232
:10020900D10000008139309B0FB1F5B1A7EAFFAEEB
:100219000F75F000B1E041EBB1FC7E0C3088028132
:1002290039D101B1A7208A1AD50A19850E0A900772
:1002390000C2D1EA2408FFAE0FD2D575F000B1EBA8
:1002490041EB00000CEDB50D15BC021AB4FF0775A2
:100259008C00B1E841E790071AC2D1008018F50D6A
:100269007C00B1E441E7BC1E717C18B4FF03008037
:1002790005900720C2D100B4FB09850E0AB28AB1E4
:10028900F241E7208A56B4DF0FEA2408FFAE0FD205
:10029900D575F000B1FB41EBB4F70CEAFF1FAE0FC7
:1002A90075F080B1FC41EBB4BF0CEAFF0FAE0F75DE
:1002B900F040B1FE41EBB4EF0F8A07E50F04540398
:1002C900FE75F0C0D10141EBB4FD04B1FB41E7B4C7
:0A02D900FE04B1FD41E7B1FD41E76D
:1002E300B1FAB1EF7E0B8139E50C23234EF9B1A7A7
:1002F300E9248A83FD10F704D101800A6F54076053
:1003030002800343F001ED6F54786002800343F0F1
:1003130004E9248583FD10F604D101800A6F540794
:100323006002800343F002ED6F5478600280034360
:10033300F008B1FBB1A7E50DB4EF18E50C7017EFAA
:10034300540760028003D2F600EF5478B41009D248
:10035300F78005000000B1FBE5F07018309B11E554
:100363000C0423234423F583B1EEB1A7B1D661D5A1
:10037300B1EA61B9A2E39288B1EE7E098139091F1E
:10038300091F0F0F0F0F0810101710170810101761
:1003930008101017101708100810077807787F7FC8
:1003A3007F7F7F78077F077F7F78077F7F78077F4F
:1003B300077F7F787F78B1A7008A0086837D04E575
:1003C3000F0303450CC42475F9E9832AF87603095E
:1003D300DDF77D04B1A70075F000EE0303450CC4FF
:1003E300245BF9E9832FF8E642F009DDF6B1A73083
:1003F300F51C309B0BD29A758CE1C29BB1E6811937
:10040300A2D59288C2D5740191EAB1FA8119C2D5F5
:10041300AA078E0FB1E37E05E50F0303450CC42441
:1004230018F97D04B1A7E9832AF8A68309DDF7C289
:100433009B758307D1000000B1A7B1D7DEF8016532
:10044300FEFF0001F0F80008FEFF0001F0F80008CD
:100453000001080900010809000108090001080951
:10046300FF000108F800FF08F8FF0001F801000889
:10047300FF0001F9F8000809FF000107F7F8000879
:10048300F7FF0001F8F90008FF000109F800070869
:10049300F7F80001F9000108F7F80001F900010875
:1004A30000010708F7FF000800010708F7FF00082D
:1004B300E598C4035407F50C242583FAE58C540707
:1004C300B4070474028003000000C42354E053986B
:1004D3001F4298750F007E01C288D29BB1F401E1DF
:1004E3001414141C1C1C14258BF58BE4358DC58D3D
:1004F300B58D07740300D5E0FD22E50EC423541F18
:10050300F404250EF50E22740462B000000062B0FC
:1005130022740062B000000062B022742862B0004E
:1005230062B0000022742862B00062B0000022743E
:100533002C62B0000062B00022742C0062B062B082
:100543000000227410000062B062B00022741062D6
:10055300B0000062B00022741462B062B000000008
:1005630022741462B0000062B00022743862B000DA
:1005730062B000002274380062B00062B0002274DE
:100583003C0062B00062B00022743C62B00062B012
:100593000000227F0400DFFE75B02B7F0B00DFFE1F
:1005A30075B0032275B00220D10AD58A0A8B8AB2AC
:1005B30097D2B022D297000080F775B00020D10AFD
:1005C300D58A0A8B8AB297D2B022D297000080F7DD
:0F05D30000000000000000000000000000000019
:1005E2000000000000000000000000000000000009
:1005F20000000000000000000000000000000022D7
:100700002F0326032004010120051C0519051705E8
:100710001505130511051005010120052C05010122
:100720003F020101011E3F1E010F380F321E2A1E1B
:10073000260F200F260F2A0F321E2A1E260D010219
:10074000260D0102260D0102260D01022A1E320F7E
:100750003F0F320F010F320F010F381E011E3F1ED7
:10076000010F380F321E2A1E260F200F260F2A0FC8
:10077000321E2A1E260E0102260E0102260E01023C
:10078000260E01022A1E320F3F0F321C0102320ACE
:1007900038143F1E01013F242F0C28242F0C322433
:1007A0002F062A062F303B2435062F063F244F0CF8
:1007B00054243F0C5E302F24280C2024280C2A249B
:1007C0002806230628303B0635062F063B063F0643
:1007D0003B0635063F0647063F063B064F065424B8
:0607E0003F0C5E30010138
:10080000758CFF750A017B01750B01900F2DC2D10C
:100810007864740FF608B879FB7841E824CB83F646
:1008200008B84AF720940D7B204115D9FEB48E619B
:1008300037270A001205BDD58C14058C050A74559E
:10084000258C500C7A017510FE1205E0015C013E0A
:10085000E58C241B83F510F4FA1205E21205BDE5C0
:100860000A70030200303094FA7E1E1205DB211C50
:10087000010306090B0C0D0E0F0E0D0C0B090603E0
:100880000104080C0F1316191B1D1E1F1F1F1E1D10
:100890001B191613100C080401050B10151B1F243F
:1008A000292D3134373A3C3D3F3F3F3F3F3D3C3AB5
:1008B0003734312D2924201B15100B0501070E1686
:1008C0001D242B32393F464C52575D62666A6E7268
:1008D00075787A7C7E7F7F7F7F7F7E7C7A78757269
:1008E0006E6A66625D57524C464039322B241D16A3
:1008F0000E070109131D27313B444E576069727B77
:10090000848C949CA4ACB3BAC0C7CDD3D8DDE2E646
:10091000EBEEF2F5F7FAFCFDFEFEFEFE1205A71265
:1009200005D5DEF81205A775F009780A75B0337C95
:10093000517D097E007F0E1205E075B003DAE512E5
:1009400005A7744045F0F9E7D2B4FE2200C2B421F5
:100950003F758107D8F6780AC2B4D5F0E21205A730
:10096000120601D2B47D787E0FE50A249C500B2438
:10097000EB400AE50AF8762F2180000000120600FD
:100980001205EA75B003D510D41205A70000008542
:1009900064B08565B08566B08567B08568B08569E7
:1009A000B0856AB0856BB0856CB0856DB0856EB072
:1009B000856FB08570B08571B08572B08573B08574
:1009C00074B08575B08576B08577B08578B00075E0
:1009D000B003DEB51205A7120601D2B47E0C1205D3
:1009E000DD75B003DDEE1205A71205D7DE0221F298
:1009F00021E61205A720D116D50B15E493FBE4A33D
:100A000093F50BA3B4020092D11205E90134000062
:100A10001205D901341205BD1205D720940730D52F
:100A200007C2D54190D2D5001205BD1205DBF18E6B
:100A30007E1E1205A778FE79201205D7DEF4120576
:080A4000A775B03FD375B02F7C
:100A4800E475B03B3975B02BF975B037E475B0274C
:100A58003875B033F875B0037E0D75B03F0075B0CA
:100A68002F0075B03B0075B02B0075B0370075B01E
:100A7800270075B0330075B0030070BA1205A712CD
:100A880005D7DE02411541841205BD1205D7209411
:100A98000730D507C2D541FCD2D5001205BD1205D5
:100AA800DBF18E7E1E1205A778087901742BD29B84
:100AB8001205D9DEF01205A7D90BF5B0309B1979CC
:100AC8003BC29B8018D2B700007D08C2B7D2B700DE
:100AD800DDF9C2B7D2B741BD18D29B09001205E1B2
:100AE8007E0D75B003B800CD1205A71205D7DE023A
:100AF800419041F01205BD1205D720940730D50763
:100B0800C2D54115D2D5001205BD1205DBF18E7E86
:100B18001E1205A77808793C743F1205D8DEF21238
:100B280005A7D90EF5B0793C643C7D0763B03C1845
:100B38008006F5B0613E7D0863B03C7E0DDDF97539
:100B4800B003B800DA1205A71205D7DE0241FC612E
:010B58004D4F
:100E0000D2B2F18FC2B21205ED22D2B2C2B200D27A
:100E1000B2C2B200D2B2C2B2F190D2B2C2B2F18DBD
:100E2000D2B2C2B2F18E228300D2B2C2B2F18DD25E
:100E3000B2C2B21205F4228300D2B2C2B28300D28F
:100E4000B200C2B200D2B283C2B200D2B200C2B209
:100E5000D2B2C2B200D2B2C2B28300D2B283C2B2A4
:100E6000228300D2B2C2B283D2B2C2B200D2B2C224
:100E7000B200D2B2C2B20083D2B200C2B200D2B2C9
:100E800000C2B283D2B2C2B200D2B2C2B2228300D6
:100E9000D2B2C2B283D2B28300C2B200D2B2C2B264
:100EA0000083D2B2C2B28300D2B2C2B283D2B20045
:100EB000C2B283228300D2B2C2B283D2B2C2B2F132
:100EC00091D2B2C2B20083D2B2C2B28300D2B2C255
:100ED000B28383D2B200C2B22283D2B283C2B283BF
:100EE000D2B200C2B283D2B200C2B283D2B2C2B214
:100EF00083D2B283C2B200D2B283C2B200228300D4
:100F0000D2B2C2B283D2B2C2B200D2B2C2B200D2A4
:0A0F1000B2C2B2D2B2C2B200D2B235
:100F1A00C2B28300D2B2C2B283D2B2C2B200D2B2D9
:100F2A00C2B2222006010220060102200601022086
:100F3A002E010220060102200601022006010220DB
:100F4A002E010220060102200601022006010220CB
:100F5A000C260C2F0C260C200C260C200C170C200F
:100F6A000A0102200A0102200A0102200A010220C3
:100F7A000A0102200A0102200A0102200A010220B3
:080F8A006001010000000022DB
:00000001FF
