:1000000012C02BC02AC029C0AEC027C026C025C040
:100010008AC023C022C021C020C01FC01EC01DC076
:100020001CC01BC01AC011241FBECFE5D4E0DEBF28
:10003000CDBF10E0A0E6B0E0E8E7F6E102C0059031
:100040000D92AA38B107D9F710E0AAE8B0E001C0D4
:100050001D92A33AB107E1F756C2D2CFF0E0A898BB
:1000600081E28A95F1F7A89A84EC99E00197F1F77B
:10007000A998A1E0B0E027E130E040E050E067E07F
:1000800070E0E7E09A9B08C0CD01062E02C0880F01
:10009000991F0A94E2F7F82BA998822F8A95F1F715
:1000A000A99A822F8A95F1F7E15061507040E7FFDD
:1000B000E9CF8F2F9927089527E046E061E082E39A
:1000C00090E029D224E0422F61E082E390E023D245
:1000D00023E040E0642F82E390E01DD223E040E083
:1000E000642F82E390E051D221E040E0622F85E36B
:1000F00090E011D222E0422F60E085E390E00BD245
:1001000022E0422F60E085E390E03FD225E040E02E
:10011000642F82E390E0FFD125E040E0642F82E38A
:1001200090E033D208951F920F920FB60F921124D0
:100130008F9380918F008F5F80938F008F910F90AE
:100140000FBE0F901F9018959798949A10928F0059
:100150001DBC1CBC1DBC1CBC08959498979A969A13
:100160000895969808951F920F920FB60F9211243A
:100170002F933F934F935F936F937F938F939F93AF
:10018000AF93BF93EF93FF93809192009091930070
:10019000A0919400B09195000196A11DB11D80938E
:1001A000920090939300A0939400B0939500809157
:1001B0008E008F5F80938E0099278F719070892BAE
:1001C00009F0B7C0CEDF80B39927AA27BB278F706D
:1001D0009070A070B0708093960090939700A09359
:1001E0009800B09399003ADF282F332744275527EA
:1001F000689413F8220F331F441F551F1694D1F72C
:100200008091960090919700A0919800B0919900EC
:10021000822B932BA42BB52B809396009093970061
:10022000A0939800B09399008CB59DB59C0144278C
:100230005527012E1CE0220F331F441F551F1A950E
:10024000D1F7102D8091960090919700A091980081
:10025000B0919900822B932BA42BB52B8093960001
:1002600090939700A0939800B093990080918F008D
:10027000282F3327442755277CE1220F331F441FA3
:10028000551F7A95D1F78091960090919700A09193
:100290009800B0919900822B932BA42BB52B8093BF
:1002A000960090939700A0939800B09399002091A6
:1002B000960030919700409198005091990057FD19
:1002C00004C0CA01B901E8D614C0DA01C9018170BD
:1002D0009070A070B0705695479537952795822BF2
:1002E000932BA42BB52BBC01CD01D6D69B01AC0121
:1002F00032D52CEE31E548E95FE387D5DC01CB014F
:1003000022E03CE340E85FE3BC01CD017ED5DC01A7
:10031000CB01BC01CD01D7D3DC01CB01809396008A
:1003200090939700A0939800B09399000DDF14BCB0
:1003300014DFFF91EF91BF91AF919F918F917F91CA
:100340006F915F914F913F912F910F900FBE0F9042
:100350001F90189580E058D1AA27BB27BC01CD017A
:100360000895EF92FF920F931F93E0909600F09004
:100370009700009198001091990060E070E0CB0127
:1003800000D260E070E0CB01FCD1D801C701885EEB
:100390009340A040B04087559E43AF40B04098F492
:1003A00023E0422FC801B7019AD280E690E0F5D150
:1003B0008091900007D2809190008F5F8093900091
:1003C00084E690E0EAD180E4E81682E4F8068FE063
:1003D000080780E018079CF024E046E0C801B70158
:1003E0007ED28BE690E0D9D180919000EBD18091C4
:1003F00090008F5F809390008FE690E0CED128EE42
:10040000E21623E0F20620E0020720E012079CF447
:1004100020E0422FC801B70162D285E790E0BDD14C
:1004200080919000CFD1809190008F5F8093900059
:1004300088E790E0B2D161E070E080E090E0A1D187
:100440008CB5992722D280E2BDD18DB599271DD2D6
:1004500080E2B8D180918F00992717D21F910F9118
:10046000FF90EF9008951FBC87E08EBD85BD089575
:1004700084E489BF10928F001DBC1CBC1DBC1CBC39
:1004800078940895F894EFDFF3DF16DE6ADE5CDE21
:1004900064DE14BC8091920090919300A09194002E
:1004A000B091950090939D0080939C0080919C005A
:1004B00090919D000996AA27BB2720919200309128
:1004C00093004091940050919500821B930BA40BD4
:1004D000B50BB7FFEBCF8091920090919300A09164
:1004E0009400B091950090939D0080939C00809122
:1004F000960090919700A0919800B0919900BC014E
:10050000CD012FDFD3CFCFE5D4E0DEBFCDBFF89450
:100510001DD1B8DFFECF722F6623D9F4FC013197CD
:100520002FEF30E0C90102C0880F991F4A95E2F70A
:10053000AC0187E090E0871B910902C035952795B3
:100540008A95E2F7942F9223909580818923808366
:1005500008956130C9F4FC0131972FEF30E0C901F3
:1005600002C0880F991F4A95E2F7AC0187E090E03E
:10057000871B910902C0359527958A95E2F7942F3C
:1005800092238081892B80830895FC01862F552733
:10059000622F77278130A9F42FEF30E0C90102C024
:1005A000880F991F4A95E2F7AC0187E090E0861B1F
:1005B000970B02C0359527958A95E2F7942F9223E1
:1005C00015C02FEF30E0C90102C0880F991F4A956E
:1005D000E2F7AC0187E090E0861B970B02C03595EF
:1005E00027958A95E2F7942F922390958081892B05
:1005F0008083089580E487B985EC86B9349BFECF6B
:10060000349A84B185B10895982F977087B1807F0F
:10061000982B97B9369A349BFECF84B1282F332775
:1006200085B19927982F8827349A822B932B089588
:1006300083E08A95F1F7089525E043E061E088E3DF
:1006400090E069DF08950F931F93CF93DF93082FF6
:10065000C0E0D0E017E0ECDF802F99270C2E02C01D
:10066000880F991F0A94E2F787FF02C0C39A01C05E
:10067000C398DEDFC59ADCDFC5981150219617FFBD
:10068000EACFDF91CF911F910F9108951F93182FFB
:10069000CFDF812FD8DFCCDFC49ACADFC9DFC8DF44
:1006A000C4981F91089582E38A95F1F7089580E038
:1006B00090E00197F1F708951F93CF93C82F162F5D
:1006C000F2DF809191008F7C80939100DFDF809139
:1006D0009100112311F08F7B01C080648093910001
:1006E00080919100D3DFDFDF80919100807F9C2F8C
:1006F00092959F70892B80939100C8DFD4DF809101
:100700009100806180939100C1DFCDDF80919100E5
:100710008F7E80939100BADFC6DF80919100807F49
:10072000CF708C2B80939100B1DFBDDF8091910061
:10073000806180939100AADFB6DF809191008F7E67
:1007400080939100A3DFCF911F91089575DF61E041
:1007500083E3B2DFACDF61E082E3AEDFA8DF61E01C
:1007600088E2AADFA4DF61E08CE0A6DFA0DF61E021
:1007700086E0A2DF9CDF61E0862F9EDF98DF97DFB7
:100780000895282F3327662319F0822F805402C042
:10079000822F805861E090DF0895CF93DF93EC01C2
:1007A0008881882331F060E0899186DF8881882301
:1007B000D1F7DF91CF9108957ADF61E0862F7CDF5A
:1007C00076DF089560E078DF0895CF93DF93DC0152
:1007D000CB01209192003091930040919400509170
:1007E0009500280F391F4A1F5B1F8091920090913E
:1007F0009300A0919400B0919500FA01E901C81B03
:10080000D90BEA0BFB0B8AF7DF91CF910895282FC4
:1008100022952F709927E4E0880F991FEA95E1F758
:10082000282B3327C9018C7C9070959587959595D9
:10083000879523733070220F331F220F331F822BB3
:10084000932B9C012A7A3070359527958575907089
:10085000880F991F822B932B08958A3018F4805D9E
:1008600099270895895A992708951F93182F992732
:10087000F4E096958795FA95E1F7EFDFA3DF812FF6
:100880008F70EBDF9FDF1F910895CF93DF93EC0113
:1008900068EE73E084D6662319F0862FDEDF92DFE0
:1008A000CE0168EE73E07BD6EC0164E670E077D6AB
:1008B000CB01D3DF87DFCE0164E670E070D6EC01B8
:1008C0006AE070E06CD6CB01C8DF7CDFCE016AE065
:1008D00070E065D6C2DF76DFDF91CF910895BF92D9
:1008E000CF92DF92EF92FF920F931F93CF937B01F2
:1008F0008C01D42EB22EC0E0CC2E20E836E948E997
:1009000050E061D6DA01C901A8DF5CDFC801B70198
:1009100020E836E948E950E056D67B018C0187E0B3
:10092000D81621F48EE24EDF31E0C32EC801B701A4
:1009300020E432E44FE050E046D6DA01C9018DDF11
:1009400041DFCC2021F0C1E0CB1508F0B3C0C801D5
:10095000B70120E432E44FE050E035D67B018C0152
:1009600086E0D81621F48EE22DDF21E0C22EC801E8
:10097000B70120EA36E841E050E025D6DA01C901A6
:100980006CDF20DFCC2021F0CF5FCB1508F092C0C8
:10099000C801B70120EA36E841E050E014D67B01F7
:1009A0008C0185E0D81621F48EE20CDF91E0C92E8F
:1009B000C801B70120E137E240E050E004D6DA0197
:1009C000C9014BDFFFDECC2021F0CF5FCB1508F053
:1009D00071C0C801B70120E137E240E050E0F3D533
:1009E0007B018C0184E0D81621F481E0C82E8EE2D0
:1009F000E9DEC801B70128EE33E040E050E0E3D57E
:100A0000DA01C9012ADFDEDECC2021F0CF5FCB1571
:100A100008F050C0C801B70128EE33E040E050E0D4
:100A2000D2D57B018C0183E0D81621F48EE2CADE98
:100A3000B1E0CB2EC801B70124E630E040E050E041
:100A4000C2D5DA01C90109DFBDDECC2019F0CF5FC4
:100A5000CB1580F5C801B70124E630E040E050E056
:100A6000B2D57B018C0182E0D81621F48EE2AADE99
:100A7000A1E0CA2EC801B7012AE030E040E050E012
:100A8000A2D5DA01C901E9DE9DDECC2019F0CF5FE5
:100A9000CB1580F481E0D81611F48EE293DEC80104
:100AA000B7012AE030E040E050E08DD5DC01CB0119
:100AB000D4DE88DECF911F910F91FF90EF90DF90F1
:100AC000CF90BF900895EF92FF920F931F937B01F9
:100AD0008C0120E030E040E05FE4ADD288238CF070
:100AE00020E030E040E05FECC801B70134D1DC0128
:100AF000CB01BC01CD0131D36050704080409048A3
:100B000003C0C801B70129D31F910F91FF90EF9047
:100B10000895A0E0B0E0EEE8F5E077C58C017B0138
:100B20005A01DC018C91823058F0FB0190819230A7
:100B300010F4A7010BC1843029F4943009F4A6C045
:100B4000A80104C19430A9F3923009F4A9C08230FD
:100B500081F3F801C280D380FB0162817381F801C7
:100B60002481358146815781F701648075808680B4
:100B70009780C601861B970B97FDD8C080970CF411
:100B80006CC06C157D050CF0ADC066247724430164
:100B9000F8016181F7018181681709F499C0662322
:100BA00009F491C0621A730A840A950AA401930198
:100BB00057FDC0C0F5011182B60119012A01790162
:100BC0008A0139014A010894610871088108910875
:100BD000FFEF6F16FFEF7F06FFEF8F06FFE39F0625
:100BE000F0F4A8019701220F331F441F551F19016C
:100BF0002A01B601615070406B0179018A01390107
:100C00004A01089461087108810891088FEF6816FD
:100C10008FEF78068FEF88068FE3980610F383E056
:100C2000D5018C9357FC64C0F5012483358346833A
:100C3000578373836283A50189C06F5F7F4FD4019F
:100C4000C30181709070A070B0709694879477946F
:100C50006794682A792A8A2A9B2A6C157D056CF389
:100C600011C00894C11CD11CDA01C90181709070B7
:100C7000A070B0705695479537952795282B392B3E
:100C80004A2B5B2BC616D70664F382CFF8019181FD
:100C9000FB018181981709F453CF41E850E056C019
:100CA000823009F04DCF88E0DA01F80101900D9211
:100CB0008A95E1F7F8018181FB0191818923FA018D
:100CC0008183A50143C0261937094809590970CF06
:100CD000F5016183B601260D371D481D591D190107
:100CE0002A019DCF6B0120E030E040E050E050CF82
:100CF000D201C101B695A7959795879521E030E07F
:100D000040E050E02222332244225522282A392A68
:100D10004A2A5B2AF501248235824682578208944A
:100D2000C11CD11CD382C282A50110C090958195AF
:100D30009F4F24CF81E0F5018183B6015095409506
:100D4000309521953F4F4F4F5F4F37CFCA01E2E1BA
:100D5000CDB7DEB776C4A0E2B0E0E0EBF6E063C466
:100D6000DC01CB01898F9A8FAB8FBC8F2D8F3E8F8B
:100D70004F8F58A3BE016F5F7F4FCE01499622D39C
:100D80008E01075F1F4FB801CE014D961BD3AE01F8
:100D90004F5E5F4FB801CE010196BBDE2DD2DC0164
:100DA000CB01BC01CD01E4E0A09659C4A0E2B0E0C3
:100DB000EBEDF6E038C4DC01CB01898F9A8FAB8F65
:100DC000BC8F2D8F3E8F4F8F58A3BE016F5F7F4F1B
:100DD000CE014996F7D28E01075F1F4FB801CE01B1
:100DE0004D96F0D28A8591E089278A87AE014F5EC1
:100DF0005F4FB801CE0101968CDEFED1DC01CB0144
:100E0000BC01CD01E4E0A0962AC4A0E2B0E0EAE093
:100E1000F7E0FBC3DC01CB01898F9A8FAB8FBC8FCE
:100E20002D8F3E8F4F8F58A3BE016F5F7F4FCE0136
:100E30004996C8D269E070E06C0F7D1FCE014D96D7
:100E4000C1D2FE01319666247724430113012401A7
:100E50008981823098F09985923058F420E0918110
:100E60008A85981321E02A8769E070E06C0F7D1F66
:100E7000D9C0843059F4923009F45BC020E09181EC
:100E80008A85981321E02183BF01CCC0943009F4F6
:100E90004DC0823099F3923009F3ED80FE800F81CE
:100EA00018852D853E854F855889640153016FE172
:100EB00070E00CC0220F331F441F551F1695079575
:100EC000F794E7946150704077FD36C0D801C701B0
:100ED00081709070A070B070892BC9F080E090E0B4
:100EE000220E331E441E551E221633064406550696
:100EF00010F481E090E0AA2797FDA095BA2F8A0D03
:100F00009B1DAC1DBD1D680E791E8A1E9B1EAA0C62
:100F1000BB1CCC1CDD1C57FFCDCF81E090E0A0E0D6
:100F2000B0E0A82AB92ACA2ADB2AC4CF823009F045
:100F300095CF61E870E076C0228133818B859C85F6
:100F4000280F391F2E5F3F4FA90160E091818A85EC
:100F5000981361E06A8B97FE0FC02FC0CA010197FA
:100F6000AC019C01660C771C881C991C57FC41C085
:100F7000220C331C441C551C90E0691690E0790645
:100F800090E0890690E4990648F33C8B2B8BD401C2
:100F9000C3018F779070A070B07080349105A10567
:100FA000B10581F16D8A7E8A8F8A988E83E0898B64
:100FB00061E170E06C0F7D1F35C02F5F3F4FA901CD
:100FC000D401C30181709070A070B070892B61F062
:100FD000569447943794279480E090E0A0E0B0E8DE
:100FE000282A392A4A2A5B2A969487947794679408
:100FF000C3CF81E090E0A0E0B0E0682A792A8A2A95
:101000009B2AB6CF67FC05C021143104410451046A
:1010100049F280E490E0A0E0B0E0680E791E8A1EFC
:101020009B1EC0CFCB01E8D0DC01CB01BC01CD01C0
:10103000E2E1A09606C3A8E1B0E0E0E2F8E0F3C286
:10104000DC01CB01898B9A8BAB8BBC8B2D8B3E8BC0
:101050004F8B588FBE016F5F7F4FCE014196B2D14B
:101060008E01075F1F4FB801CE014596ABD1898134
:10107000823018F08985823018F42FEF3FEF08C0D6
:10108000B801CE01019618D2282F332727FD3095BD
:10109000C901E4E06896E3C2A8E0B0E0E1E5F8E069
:1010A000C0C29B01AC017B018C01EE2417FDE394CF
:1010B000FF2400271127EA8221153105410551053A
:1010C00031F482E08983CE01019696D043C083E05B
:1010D00089836EE170E0CB01EE2031F579018A0160
:1010E000A80197012030E0E03E07E0E04E07E0E491
:1010F0005E0798F479018A01EE0CFF1C001F111F96
:101100000197BC01A8019701E0E0EE16E0E0FE06C1
:10111000E0E00E07E0E41E0768F3ED82FE820F8335
:1011200018877C836B83CFCF2030E0E03E07E0E080
:101130004E07E0E85E0741F0EE24FF248701E21A43
:10114000F30A040B150BCCCF7C836B8360E070E05B
:1011500080E09FECE6E0289680C2ACE0B0E0E2EBF5
:10116000F8E063C2DC01CB0189879A87AB87BC8733
:10117000BE016F5F7F4FCE01099624D189818230F5
:1011800011F0823028F460E070E080E090E031C03F
:10119000843039F02B813C8137FDF5CF2F3131057B
:1011A0006CF08A81882329F060E070E080E090E8AC
:1011B00020C06FEF7FEF8FEF9FE71BC08EE190E0C5
:1011C000821B930B2D813E814F81588504C056951B
:1011D0004795379527958A95D2F78A81882339F0E4
:1011E00050954095309521953F4F4F4F5F4FCA0125
:1011F000B901E2E02C9635C2A0E0B0E0E1E0F9E010
:101200000AC2882499245401DC01FC01248135811F
:10121000468157818181082F112760E070E08C9111
:10122000823020F46FEF70E04061A4C0843009F494
:1012300064C0823009F463C02115310541055105B0
:1012400009F498C0FD0182819381FFEF82389F07E6
:101250000CF050C0A2E8EA2EAFEFFA2EE81AF90A15
:101260008AE1E816F1040CF06BC06B0181E090E0BC
:10127000A0E0B0E00E2C04C0880F991FAA1FBB1F6E
:101280000A94D2F70197A109B10982239323A423D9
:10129000B5230097A105B10519F0F1E0CF2ED12CAF
:1012A00004C05695479537952795EA94D2F7C6011D
:1012B000AA2797FDA095BA2F282B392B4A2B5B2BF9
:1012C000DA01C9018F779070A070B07080349105F9
:1012D000A105B105D1F1215C3F4F4F4F5F4F203049
:1012E000E0E03E07E0E04E07E0E45E0708F161E081
:1012F00070E01EC0803891053CF06FEF70E020E098
:1013000030E040E050E036C0BC0161587F4FDA0168
:10131000C9018F779070A070B07080349105A105DD
:10132000B105D1F0215C3F4F4F4F5F4F57FD1BC0C0
:1013300097E056954795379527959A95D1F71AC016
:1013400020E030E040E050E0BBCF27FFC8CF205C7A
:101350003F4F4F4F5F4FC3CF27FFE8CF205C3F4F3A
:101360004F4F5F4FE3CF56954795379527956F5F62
:101370007F4FDECF822E932E942F9F778A2D8078F9
:10138000A82EA92A962F9795992797958A2D8F771A
:10139000A82EA92A76956795962F9F778B2D807812
:1013A000B82EB92A902F9795992797958B2D8F77DF
:1013B000B82EB92AD501C401BC01CD01ECE0CDB7EE
:1013C000DEB745C1CF93DF93FC01DB014081518142
:1013D0002281622F6F7770E0221F2227221F9381C4
:1013E000892F880F822B282F3327991F9927991F20
:1013F000ED0199832115310541F441155105610530
:101400007105E1F482E08C9354C02F3F310509F45B
:1014100041C02F573040FD013383228383E08C93FA
:1014200087E0440F551F661F771F8A95D1F77064B8
:10143000ED014C835D836E837F833BC022E83FEFE9
:10144000F901C7E0440F551F661F771FCA95D1F7F2
:1014500083E08C93403080E0580780E0680780E4A8
:10146000780778F4440F551F661F771F21503040CE
:10147000F9014030C0E05C07C0E06C07C0E47C07C5
:1014800088F3ED01FB83EA83FD0144835583668382
:1014900077830FC0411551056105710519F484E08A
:1014A0008C9307C064FF03C081E08C93C1CF1C9272
:1014B000BFCFDF91CF9108950F931F93CF93DF9309
:1014C000FC01DB018081823018F09C91923018F48D
:1014D00061E070E05EC08430C1F0843001F194308E
:1014E00009F447C0823009F44BC0823009F44EC081
:1014F0009230A9F04181ED0189814817B9F0442368
:1015000089F08FEF9FEFBC0144C0943031F7EB01BD
:101510008981682F77278181681B71093AC0818191
:10152000882379F781E090E0BC0133C022813381C8
:10153000ED018A819B81821793070CF328173907E5
:101540009CF00481158126813781FD0164817581BC
:1015500086819781601771078207930780F20617CB
:1015600017072807390778F4442359F281E090E0FF
:10157000DBCFFD018181882321F281E090E0D4CF8F
:10158000923009F0B2CF60E070E003C0ED018981D4
:10159000F2CFCB01DF91CF911F910F910895AA1B3C
:1015A000BB1B51E107C0AA1FBB1FA617B70710F04E
:1015B000A61BB70B881F991F5A95A9F78095909580
:1015C000BC01CD010895A1E21A2EAA1BBB1BFD018F
:1015D0000DC0AA1FBB1FEE1FFF1FA217B307E40712
:1015E000F50720F0A21BB30BE40BF50B661F771F6A
:1015F000881F991F1A9469F760957095809590954A
:101600009B01AC01BD01CF0108952F923F924F92F3
:101610005F926F927F928F929F92AF92BF92CF9282
:10162000DF92EF92FF920F931F93CF93DF93CDB78B
:10163000DEB7CA1BDB0B0FB6F894DEBF0FBECDBF03
:1016400009942A88398848885F846E847D848C84D4
:101650009B84AA84B984C884DF80EE80FD800C81DD
:101660001B81AA81B981CE0FD11D0FB6F894DEBFC0
:081670000FBECDBFED0108958E
:101678004B487A00202020202020004D487A002066
:101688002020202000487A00202020202020202010
:0A1698000000000000000000000048
:040000030000015A9E
:00000001FF
