:100000002FC048C046C069C0DBC043C082C141C0E8
:1000100040C03FC03EC03DC01BC31CC31CC31EC369
:1000200021C324C325C326C33FC33EC33DC33CC332
:100030003BC33AC339C320C321C322C323C324C350
:1000400033C332C331C330C32FC32EC32DC32CC31C
:100050002BC32AC329C31AC31CC31EC320C321C375
:1000600011241FBECFEDCDBF10E0A0E6B0E0EEEE54
:10007000F7E003C0C89531960D92A836B107D1F7C5
:1000800010E0A8E6B0E001C01D92A137B107E1F78A
:1000900089C3B6CF1F920F920FB60F9211242F93E0
:1000A0008F939F939EB52BB5269580916A008061B2
:1000B00080936A008BB78F7B8BBF921710F0921BD7
:1000C00001C0920F9DBD10926E009F918F912F9154
:1000D0000F900FBE0F901F9018951F920F920FB6A2
:1000E0000F9211248F939F9380916A0084FF4BC0DD
:1000F00080916E008F5F80936E0099278A30910502
:1001000034F482309105E4F4019721F031C00A976C
:1001100031F12EC010926B0081E080936200B6999D
:1001200027C080916A0085FF05C080916A008460C5
:1001300080936A0080916A008F7D80936A0023C05B
:10014000B69B07C080916B0090916200892B8093D1
:100150006B0080916200880F8093620014C08091D0
:100160006A00806280936A0080916B0080937000C7
:100170008AB780648ABF80916A008F7E80936A000C
:100180008BB780648BBF9F918F910F900FBE0F90A4
:100190001F90189580916A0087FF10C0DC980000BE
:1001A000D098D89882E08A95F1F781EC8BBB8FE3E9
:1001B0008ABB80916A008F7780936A0008950895C2
:1001C00078941F920F920FB60F9211242F933F93A2
:1001D0004F935F936F937F938F939F93AF93BF934F
:1001E000EF93FF9380916A0083FF32C080916F008C
:1001F0008F5F80936F0099278A30910534F48230A5
:1002000091056CF4019721F01EC00A97C1F01BC044
:1002100080B78F7E80BF81E08093660019C0809197
:100220006C0090916600892319F080B7806102C04C
:1002300080B78F7E80BF990F9093660009C080B70A
:10024000806180BF05C080916A00877F80936A00CB
:10025000A89580916A0083FD07C080916A0084FDA3
:1002600003C009B601FE0CC0C49889E190E09093E8
:1002700064008093630080916D008093650038C0B6
:100280000BB606FC07C08AB780648ABF00008BB734
:1002900080648BBF809165008150809365008F3FA3
:1002A00039F580916D008093650080916300909195
:1002B0006400019790936400809363008F5F9F4F69
:1002C000B9F489E190E09093640080936300809199
:1002D0006A0087FF08C080916000815080936000B1
:1002E0008F3F09F457DFB49902C0C49A01C0C49883
:1002F000FF91EF91BF91AF919F918F917F916F91FE
:100300005F914F913F912F910F900FBE0F901F90D3
:1003100018951F920F920FB60F9211248F93809110
:100320006A00846080936A0013BE89B78D7F89BF9D
:1003300084EC8FBDC69ABE9A8F910F900FBE0F901E
:100340001F90189581EC8BBB8FE38ABB8FEE88BB27
:1003500088E187BB94E690936D0088B7846488BF7A
:100360001DBC1CBC9BBD84E380BF84EC8FBD1EBC48
:1003700089B78D7F89BF89B7806489BF89B780625B
:1003800089BF85B7826085BF8BB780648BBF88E1EA
:1003900090E028E00FB6F894A89581BD0FBE21BD6E
:1003A0007894089580916A0085FFFCCF80916A005F
:1003B0008F7D80936A008091700099270895982F0F
:1003C00080916A0083FDFCCF90936C0010926F00C7
:1003D00080916A00886080936A00089580916A0025
:1003E00087FD1EC08FE38ABB81EE8BBB000083E0DC
:1003F000DC9A0000DC98815087FFFACFD89885E01E
:100400008A95F1F7D398DB9A80E090E00197F1F7B5
:1004100080E58093600080916A00806880936A0024
:1004200008950895EF92FF920F931F93CF93E82EB4
:10043000F62E00E0C0E81C2F80916A0087FFCEDF17
:1004400080E58093600022E030E040E050E06FEF14
:100450007FEF9AE06830710570F48F2D812311F0E1
:10046000DA9A01C0DA988E2D812311F0D99A01C051
:10047000D998169502C0D998DC98822F8A95F1F701
:10048000DC9A822F8A95F1F7DC98CC2319F0CB996E
:100490000C2BC69591506F5F7F4F97FFDBCF802F5E
:1004A0009927CF911F910F91FF90EF9008956CE4E1
:1004B00080E8B8DF64E680E0B5DF6CE680E0B2DFBC
:1004C000CB9BFECF6CE480E0ADDF992708956CE410
:1004D00084E0A8DF68E680E0A5DF6CE680E0A2DFCC
:1004E000992708956CE484E09DDF6AE780E09ADF55
:1004F0006EE780E097DF992708956CE484E092DF4F
:1005000068E780E08FDF6CE780E08CDF9927089553
:10051000CF936CE488E086DFC0E06CE08C2F82DF54
:1005200068E680E07FDF6CE680E07CDF48DFCF5F5D
:10053000C33098F3CF9108956CE488E073DF6CE0EA
:1005400080E070DF68E780E06DDF6CE780E06ADF05
:10055000992708951F93182F6CE480E463DF6CE201
:10056000812F60DF64E680E05DDF80E197E2019744
:10057000F1F76CE680E056DF80936800CB9BFECFFE
:100580008091680099271F9108951F93182F6CE49C
:1005900080E448DF6CE2812F8F7144DF64E780E004
:1005A00041DF80E197E20197F1F76CE780E03ADF05
:1005B00080936800CB9BFECF8091680099271F91A4
:1005C00008951F93182F6CE480E22CDF6CE2812FDA
:1005D000837028DF64E680E025DF6CE680E022DFC0
:1005E00080936800CB9BFECF8091680099271F9174
:1005F000089583DF8C6F99278F5F9F4F09F057DF36
:1006000066DF8A3611F08AE6A5DF6CDF8F3F11F0D6
:100610008FEFBBDFBFDD80E090E008951F93CF93A5
:10062000C1DEC82FBFDE182F87FD05C0682F8C2FB5
:10063000F9DEC5DE41C09927AA27BB27F92FE82F8D
:10064000E158F040E432F10578F5E45FFF4F09949A
:10065000C5DE01C09FDD80916A0024C08AB3AFDE91
:10066000CABB27C08BB3ABDECBBB23C089B31AC0D8
:100670008BB318C08AB316C02ADF14C033DF12C090
:100680003CDF10C059DF0EC043DF13C08C2F62DF88
:1006900009C08C2F7ADF06C08C2F93DF03C007DFE1
:1006A00001C0A7DF8CDE05C080916A008460809362
:1006B0006A00113809F06EDDCF911F91089540E175
:1006C00057E213BE88B7826088BF12BE8BB78F7B9C
:1006D0008BBF80916A008B7F80936A0089B78260AC
:1006E00089BFB69B37C0B699FECF8BE083BF1FBCD6
:1006F0001EBCA895B69BFECF13BE84EC8FBDA895FB
:1007000080916A0082FF02C0BE981DC082B78F31FF
:10071000A8F082B78093610010926800992720E0CA
:100720002F5F481B590B14161506D4F3209368004D
:1007300020936D008091610042DE08C080916A00C4
:10074000846080936A0084E68093610080916100F8
:100750008BBD05C080916A00846080936A008AB76F
:1007600080648ABF89B78D7F89BF8BB780648BBF58
:1007700080916A0082FD14C015DE21DE8091700038
:10078000853571F080916A0083FDFCCF80916A000D
:10079000846080936A0084E6809361008BBD1EBCF8
:1007A00008950895CFEDD0E0DEBFCDBFCBDD8091C1
:1007B0006A00846080936A0080916A0082FF11C0A1
:1007C000CF990DC080E49CE90197F1F7CF9907C05C
:1007D00010DFCF9BFECF80E090E00197F1F76FDF55
:0E07E000EBCF80916A0082FDE2CF18DFFACFE6
:0807EE005064011900640100D0
:00000001FF
