:1000000009C01895189563C11895189518951895F5
:10001000189518958FE98DBFC0E9E8E84E2EDD27C9
:100020005D2EEEE3F0E0A0E6B0E088278D933197F7
:10003000E9F76624B89AB99ABA9A81E083BF80E05A
:100040008FBD89B7826089BF789485E086B980E4E6
:1000500087B9379A8FEF809360008AE090E09FD154
:1000600080E08093600086E990E099D18FEF8093E3
:1000700061008AE090E093D180E08093610086E99E
:1000800090E08DD18FEF8093620084E190E087D182
:100090000027A7E68C9187FB0EF401E040E00417EF
:1000A00009F091C000916400003009F01DC0A2E683
:1000B0008C918F5F8C93A5E60D911C91A2E64D91DA
:1000C0005527040F151FA5E60D931C93A5E60D916A
:1000D0001C91003451E0150710F009F001C003C075
:1000E00081E0809364006FC0013009F00FC000917F
:1000F0006000063008F004C082E08093640005C010
:10010000809160008150809360005DC0023009F0F2
:100110000DC0A1E68C918F5F8C9300916100063930
:1001200009F003C083E0809364004DC0033009F000
:100130000FC000916200063008F004C084E0809394
:10014000640005C0809162008150809362003BC0D2
:10015000043009F027C0A0E68C918F5F8C9308EEE5
:1001600013E0A5E64D915C91041B150BA5E60D93DC
:100170001C93A5E60D911C91A0E64D915527040F07
:10018000151FA5E60D931C93A5E60D911C9104384F
:1001900053E0150710F009F001C003C085E080931B
:1001A000640011C0053009F00EC0009161000630F6
:1001B00008F004C080E08093640005C08091610075
:1001C00081508093610082E4806487B9F7D0A5E60E
:1001D0008D939C93A5E60D911C910E3551E015076A
:1001E00010F009F001C005C08EE591E0A5E68D9301
:1001F0009C93A5E60D911C91043650E0150708F07C
:1002000005C084E690E0A5E68D939C93A5E60D914C
:100210001C910A3F50E0150780E010F009F081E0E2
:100220008F93A5E60D911C910C3251E0150781E0EA
:1002300008F080E09F918923882309F429C0009168
:100240006000003010F009F001C005C0809160002E
:1002500081508093600000916100003010F009F03F
:1002600001C005C0809161008150809361000091C0
:100270006200003010F009F001C005C080916200FA
:10028000815080936200809167008068809367004E
:10029000A5E60D911C910C3251E0150780E010F09D
:1002A00009F081E08F93A5E60D911C910A3F50E083
:1002B000150781E008F080E09F91892B882309F4DD
:1002C00005C0809167008F7780936700DECE0F9224
:1002D0001F922F923F924F925F927F92AF92BF9266
:1002E0000F931F932F933F934F935F936F937F933E
:1002F0008F939F93AF93BF93CF93DF93EF93FF932E
:100300008FB78F93A3E68C918F5F8C9340916000A1
:1003100000916300041710F009F001C002C0C19AF7
:1003200001C0C1984091610000916300041710F072
:1003300009F001C002C0C09A01C0C098409162009B
:1003400000916300041710F009F001C002C0C29AC6
:1003500001C0C2988F918FBFFF91EF91DF91CF9134
:10036000BF91AF919F918F917F916F915F914F91CD
:100370003F912F911F910F91BF90AF907F905F9011
:100380004F903F902F901F900F9018953197F1F755
:100390000895689462F80895E89462F80895EF93D8
:1003A000FF93EE27E82BE92B31F0E0EBF4E03197F7
:1003B000F1F70197D1F7FF91EF910895369A3699A9
:0E03C000FECF369A3699FECF84B195B10895DE
:00000001FF
