:10115D00113B000000000000000000000000000036
:03116D000000007F
:0C000E0012118F7F6412127C1207732203
:100EF900E4F525F526120FFD12000E1212B3121297
:100F0900C1D2AFE4FF12120D120E6E7521008F22AD
:100F1900E522640F4521700CAF26AE251212DDE4DF
:100F2900F525F526E522F47003E521F46039C3E5DA
:100F390022940AE52194005019E52264094521709B
:100F490006F523F524800BE5222401F524E4352157
:100F5900F523AE25AF267C007D0A120366E5242F12
:100F6900F526E5233EF5257B007A00793B120698A4
:030F79008096223D
:100E6E00752803C3E52864809480407C7590FF7FCD
:100E7E0001121302AF287401A807088002C333D8E9
:100E8E00FCF4F5907F011213028590277F811213D7
:100E9E0002E5276590704D5327F0E527C4540FF5F2
:100EAE002764F0603FE4FDEDC394045037C3740330
:100EBE009DFF74017E00A807088005C333CE33CE94
:100ECE00D8F9FFE527FBE4EF5B7016859027E52741
:100EDE0054F0B4F0F6C37403952825E025E02DFFF9
:0B0EEE00220D80C31528C1717FFF2278
:051302001FEF70FC224A
:10127C00AE07AF061EEF600C7FF51213027FF9125A
:05128C00130280EE22B8
:10120D00AD07AF051DEF60167FFA12127C7FFA1243
:0F121D00127C7FFA12127C7FFA12127C80E4227C
:06117000044C0000000029
:0E12B300438902758C60758D60D2A9D28C22A1
:03000B0002122CB2
:10122C00C0E0C0F0C083C082C0D075D0101211E8ED
:0B123C00D0D0D082D083D0F0D0E032C0
:0E12C100438910758DFC758B17D2ABD28E222F
:03001B000211BD12
:1011BD00C0E0C0D075D008AF4FAE4EAD4DAC4CE4D5
:1011CD007B01FAF9F81203788F4F8E4E8D4D8C4CB2
:0B11DD00758DFC758B17D0D0D0E03270
:06117600015D00015E00B6
:030FFD00C2A72266
:1011E800C0D0E55EC3955D4004C2A78009E55DD324
:1011F80094004002D2A7055EE55EC394144003E460
:05120800F55ED0D022CC
:0C12DD00D3EF9414EE940050028F5D22B9
:0E12CF00C2AFC2A7C2A9755E15C2A7D2AF22D8
:0B12E900C2AFC2A7D2A9C2A7D2AF2299
:03130700AF5D22B5
:06117C00045040833333F0
:100C9E00E4F539F53AC2B1D2B3C2B07F01121302F4
:100CAE00D2B17F01121302C2B17F01121302D2B36D
:100CBE00D2B17F01121302C2B17F01121302A20040
:100CCE0092B3D2B17F01121302C2B1D2B27F01121E
:100CDE001302E4F538E538C394085024D2B17F01ED
:100CEE00121302C2B17F0112130230B20FAF387469
:100CFE0080A807088002C313D8FC4239053880D576
:100D0E00E4F538E538C3940850247F0112130230FD
:100D1E00B20FAF387401A807088002C333D8FC4263
:100D2E003AD2B17F01121302C2B1053880D5D2B0CA
:0F0D3E00D2B2D2B1E539B53A03AF3A22AF39227A
:1010DB00D200120C9E7536008F377F0A12127CD20B
:1010EB0000120C9EEF2537F537E43536F536C31372
:1010FB00F536E53713F537AC36FDE4120236E4FB73
:10110B00FA797F7843120127AB53AA52A951A85001
:0F111B0012001E7B337A3379F3783F12001E22C5
:10107000E4F52EF52DF52CF52BC200120C9E8F2ACF
:101080007F0A12127CC200120C9EEF252AF52AC399
:1010900013F52AFCE412023BE4FBFA797F78431251
:1010A0000127AB53AA52A951A85012001E8F2E8EB1
:1010B0002D8D2C8C2BE4FBFA79A078411201278F1F
:1010C0002E8E2D8D2C8C2B7BCD7ACC79CC783D122D
:0B10D00001278F2E8E2D8D2C8C2B22E3
:0C118200041800000000041C0000000025
:0712F4008B548A5589562234
:0712FB008B578A5889592224
:01001A0022C3
:100D4D008B5A8A5B895C9000101202D224FE600DD2
:100D5D00147002A1E12402700E1212FB22AB5AAAEA
:100D6D005BA95C1212F422AB5AAA5BA95C1202B900
:100D7D00B40800505F900D8825E073A198A19CA147
:100D8D00A6A1B0A1BAA1C4A1CEA1D81212FB22ABCB
:100D9D005AAA5BA95C1212FB22AB5AAA5BA95C1280
:100DAD0012FB22AB5AAA5BA95C1212FB22AB5AAA08
:100DBD005BA95C1212F422AB5AAA5BA95C1212FB5E
:100DCD0022AB5AAA5BA95C1212FB22AB5AAA5BA9F1
:050DDD005C1212FB2274
:100698008B278A288929E51B24FAFFE4351AFEE40A
:1006A8003519FDE43518FCAB4FAA4EA94DA84C12DC
:1006B8000385E4FBFAF9F8D31203A14003D38001C0
:1006C800C34002E172AF4FAE4EAD4DAC4C8F1B8EA6
:1006D8001A8D198C181210DBAB27AA28A9299000AB
:1006E800071203E7121070E4FBFA797A78441200D3
:1006F8001EAB27AA28A9299000031203E71202B902
:10070800B40800506590071325E073E123E12DE15B
:1007180037E141E14BE155E15FE169AB27AA28A93F
:100728002912112A22AB27AA28A929120F7C22AB49
:1007380027AA28A929120B1522AB27AA28A929120A
:10074800099622AB27AA28A9291204C922AB27AAED
:1007580028A92912080022AB27AA28A929120BEADE
:0B07680022AB27AA28A92912100022AA
:10112A008B2A8A2B892C9000071203B7E4FBFAF961
:10113A00783F1201C4600D400B7F017E001212DD60
:10114A001212E922AB2AAA2BA92C74011203321219
:03115A0012CF228F
:100F7C008B2A8A2B892C7F017E001212DD1212E93A
:100F8C00AB2AAA2BA92C9000071203B7E4FBFA7921
:100F9C00C0783F1201C46021401FAB2AAA2BA92C98
:100FAC009000017401120344900002740112034476
:100FBC0074031203321212CF22AB2AAA2BA92C9043
:100FCC0000071203B7E4FBFAF978401201C460027F
:100FDC00501EAB2AAA2BA92C9000017403120344B7
:100FEC00900002740212034474021203321212CFE4
:010FFC0022D2
:100B15008B2A8A2B892C7F017E001212DD1212E9A5
:100B2500AB2AAA2BA92C9000071203B7E4FBFA798C
:100B3500E078401201C460025017AB2AAA2BA92CF9
:100B4500900002740712034474031203321212CF89
:100B550022AB2AAA2BA92C9000071203B7E4FBFAB3
:100B6500798078401201C460025017AB2AAA2BA9DC
:100B75002C900002740412034474031203321212FF
:100B8500CF22AB2AAA2BA92C9000071203B7E4FBAE
:100B9500FAF978401201C460025017AB2AAA2BA9B2
:100BA5002C900002740212034474031203321212D1
:100BB500CF22AB2AAA2BA92C9000071203B7E4FB7E
:100BC500FAF978401201C4601B4019AB2AAA2BA977
:100BD5002C900001E4120344900002E412034474D3
:050BE50007120332229B
:100996008B2A8A2B892C1213078F2DE4F531F5301B
:1009A600752FAF752E43F535F5347533E175324342
:1009B6001210DBAB2AAA2BA92C9000071203E71210
:1009C60012E9AB2AAA2BA92C9000021202D2FCE44F
:1009D60012023B7B667A6679A6783F12001EAB2A26
:1009E600AA2BA92C90000712040B1201C4603840F0
:1009F60036AB2AAA2BA92C90000F74011202FF9085
:100A0600000F1202D2D3648094A8401BAB2AAA2BF3
:100A1600A92C74041203321212CFAB2AAA2BA92CCA
:100A260090000FE4120344AB2AAA2BA92C900002D3
:100A36001202D2FCE412023BE4FBFA79C0783F12C0
:100A4600001EAB2AAA2BA92C90000712040B120138
:100A5600C46011400FAB2AAA2BA92C7405120332CD
:100A66001212CF22AB2AAA2BA92C9000021202D274
:100A7600B40715E4F531F530752F48752E42F53576
:100A8600F5347533B97532439000031203B7AB31B1
:100A9600AA30A92FA82E1201C4601A4018052DD31A
:100AA600E52D648094814003752D05AF2DEF3395B8
:100AB600E0FE1212DDAB2AAA2BA92C90000312032A
:100AC600B7AB35AA34A933A8321201C45013152D79
:100AD600E52D7003752D01AF2DEF3395E0FE121253
:100AE600DDAB2AAA2BA92C9000071203B7E4FBFA68
:100AF600F9F81201C47017AB2AAA2BA92C90000191
:0F0B0600120344900002E4120344E4120332226B
:1004C9008B2A8A2B892C1213078F2DE4F531F530ED
:1004D900752F2F752E44F535F5347533487532442B
:1004E9001210DBAB2AAA2BA92C9000071203E712E2
:1004F90012E9AB2AAA2BA92C9000021202D2FCE421
:1005090012023B7B667A6679A6783F12001EAB2AF7
:10051900AA2BA92C90000712040B1201C4500FAB8F
:100529002AAA2BA92C74031203321212CF22AB2A46
:10053900AA2BA92C9000021202D2FCE412023B7BE6
:10054900717A3D79CA783F12001EAB2AAA2BA92CD1
:1005590090000712040B1201C46011400FAB2AAAC4
:100569002BA92C74061203321212CF22AB2AAA2B02
:10057900A92C9000021202D2FCE412023BE4FBFA1D
:1005890079C0783F12001EAB2AAA2BA92C9000072C
:1005990012040B1201C4604C404A1210DBC004C0A3
:1005A90005C006C007AB2AAA2BA92C90000212028B
:1005B900D2FCE412023BE4FBFA79C0783F12001E38
:1005C900A804A905AA06AB07D007D006D005D00410
:1005D9001201C4500BAB2AAA2BA92C7405120332A1
:1005E9001212CF22AB2AAA2BA92C9000021202D2F6
:1005F900B40715E4F531F530752FF0752E42F53550
:10060900F5347533C87532439000031203B7AB3123
:10061900AA30A92FA82E1201C4601A4018052DD39B
:10062900E52D648094854003752D05AF2DEF339535
:10063900E0FE1212DDAB2AAA2BA92C9000031203AB
:10064900B7AB35AA34A933A8321201C45013152DFA
:10065900E52D7003752D01AF2DEF3395E0FE1212D4
:10066900DDAB2AAA2BA92C9000071203B7E4FBFAE9
:10067900F9F81201C47017AB2AAA2BA92C90000112
:0F068900120344900002E4120344E412033222ED
:100800008B2A8A2B892C7F017E001212DD1210DBCD
:10081000AB2AAA2BA92C9000071203E71212E9AB0E
:100820002AAA2BA92C9000021202D2FCE412023B4D
:10083000E4FBFA79C0783F12001EAB2AAA2BA92C40
:1008400090000712040B1201C4600F400DAB2AAADE
:100850002BA92C74061203322185AB2AAA2BA92CB2
:100860009000071203B7E4FBFAF9F81201C47017FD
:10087000AB2AAA2BA92C900001120344900002E499
:10088000120344E4120332E51F24B8FFE51E340BC3
:10089000FEE4351DFDE4351CFCAB4FAA4EA94DA866
:1008A0004C120385E4FBFAF9F8D31203A15002219C
:1008B00095AB2AAA2BA92C90000F74011202FF906D
:1008C000000F1202D2D36480948F400DAB2AAA2B62
:1008D000A92C740612033221851212CF7F05121241
:1008E0007CAF4FAE4EAD4DAC4C8F1F8E1E8D1D8C10
:1008F0001C1210DBC004C005C006C007AB2AAA2B1F
:10090000A92C9000021202D2FCE412023B7BD77A9F
:10091000A379B0783F12001EA804A905AA06AB0768
:10092000D007D006D005D0041201C4600F400DAB33
:100930002AAA2BA92C740412033280491210DBC09E
:1009400004C005C006C007AB2AAA2BA92C90000240
:100950001202D2FCE412023B7B337A3379B3783F44
:1009600012001EA804A905AA06AB07D007D006D01E
:1009700005D0041201C4601D401BAB2AAA2BA92C70
:1009800074031203321212CFAB2AAA2BA92C9000A7
:060990000FE412034422F3
:100BEA008B2A8A2B892C1212CF1210DBAB2AAA2B42
:100BFA00A92C9000071203E79000071203B7E4FB41
:100C0A00FAF9F81201C47017AB2AAA2BA92C900082
:100C1A0001120344900002E4120344E41203321264
:100C2A0010DBC004C005C006C007AB2AAA2BA92C3A
:100C3A009000021202D2FCE412023B7B0A7AD779B4
:100C4A00B3783F12001EA804A905AA06AB07D0076D
:100C5A00D006D005D0041201C44038AB2AAA2BA969
:100C6A002C9000021202D2FCE412023B7B5C7A8FC7
:100C7A0079B2783F12001EAB2AAA2BA92C90000742
:100C8A0012040B1201C4500BAB2AAA2BA92C740311
:040C9A0012033222ED
:101000008B2A8A2B892C1212CFAB2AAA2BA92C90BF
:1010100000021202D2FCE412023B7B8F7AC279B545
:10102000783F12001EAB2AAA2BA92C9000071204AD
:101030000B1201C4500CAB2AAA2BA92C7405120365
:101040003222AB2AAA2BA92C9000071203B7E4FB8B
:10105000FAF9F81201C47017AB2AAA2BA92C900038
:1010600001120344900002E4120344E4120332220A
:101247004469676974616C2D546F7900692D43682F
:0B12570061726765722056312E300076
:1012A300C2A0D2A1D2A2E580339200C2A2A20022A0
:101262008F2B1212A340FBC2A0C2A1C2A27F3312D3
:0A1272001302852B80D2A2C2A22233
:08000300EF4480FF121262229B
:101291001212A340FBD2A0C2A1C2A28F80D2A2C2CD
:0212A100A22287
:10118F007F0812127C7F381212627F0812127C7F46
:10119F000C1212627F0812127C7F061212627F08F5
:0E11AF0012127C7F011212627F0812127C2243
:10077300E4F527F528F529F52AFF1200037F08126F
:10078300127CC3E528940BE5276480948050297478
:1007930047252AF58274123529F583E493FF121253
:1007A30091052AE52A700205290528E52870020526
:1007B300277F0812127C80CAE4F527F528F529F56E
:1007C3002A7F40120003C3E528940EE52764809432
:1007D3008050297453252AF58274123529F583E450
:1007E30093FF121291052AE52A700205290528E5CF
:0D07F30028700205277F0812127C80CA22A0
:10001E00EC4D6011E8497017ED33EC3304600DE4DC
:10002E00FCFFFEFD22E933E8330470F80202A4124D
:10003E00026F58046009E4CC24815006285009024E
:10004E0002AE2840030202ABC0E0EB4A7044B98016
:10005E0006D0E0FB02029AEF4E701CBD8008EBFF4B
:10006E00EAFEE9FD80EBE98DF0A4FEE5F002010762
:10007E00E9CDF9EAFEEBFFEF89F0A4FCE5F0CE89BD
:10008E00F0A42EFFE435F0CD89F0A42DFEE435F07A
:10009E008067EF4E7005BD80D780C3EF8BF0A4ACA8
:1000AE00F0EE8BF0A42CFCE435F0F8EF8AF0A42CE3
:1000BE00E5F038FCE433CB8DF0A42CFCE5F03BF8F6
:1000CE00EE8AF0A42CFCE5F038F8E433CF89F0A4E6
:1000DE002CFCE5F038CF3400CE89F0A42FFFE5F0EC
:1000EE003EFEE433C98DF0A42EFEE5F039CD8AF044
:1000FE00A42FFFE5F03EFEE43DFD33D0E0FB5007BC
:10010E000BBB000F0202AEEC2CFCEF33FFEE33FE06
:06011E00ED33FD02028634
:100124000202AEEC5D046005E8590470030202A407
:1001340012026F580460F6EC4860F2EC7004FDFEA5
:10014400FF22C860DB2481C85009C39860025006AE
:100154000202AB9850CAF582E9294B4A7005AB827A
:1001640002029A75F0007C1A7880C3EF9BEE9AED38
:1001740099400DC3EF9BFFEE9AFEED99FDE842F026
:10018400DC23ACF0D0E0FFD0E0FED0E0FDAB822079
:10019400E7101BEB60BAEC2CFCEF33FFEE33FEED03
:1001A40033FD020286E803F830E705C0F075F0007D
:1001B400EF2FFFEE33FEED33FD40B830E7C280AAE7
:1001C40074F8CC6480CCC86480C8F582046043C3EE
:1001D400EB9FF5F0EA9E42F0E99D42F0E89C45F081
:1001E40060305018E5825FFFE582F42B5582FB50A6
:1001F400210ABA001D09B90019088016E5825BFBC3
:10020400E582F42F5582FF50090EBE00050DBD0096
:10021400010CC3EB9FF5F0EA9E42F0E99D42F0E841
:0D0224009C45F06007CC4820E701B3EC22B8
:1002310075F020800E75F010800575F0087D007E48
:10024100007F003392D530D503120393EC33401075
:10025100EF33FFEE33FEED33FDEC33FCD5F0ED2251
:0E026100E5F0247EA2D513CC92E7CDCEFF228D
:10026F00E9D2E7C933E833F892D5EDD2E7CD33ECD5
:07027F0033FC5002B2D5224E
:10028600EC30E7100FBF000C0EBE00080DBD0004D9
:100296000BEB6014A2D5EB13FCED92E7FD2274FF85
:1002A600FCFDFEFF22E480F8A2D574FF13FC7D80DE
:0302B600E480EFF2
:03000000020DE20C
:0C0DE200787FE4F6D8FD75815E020E29D2
:1002B900BB010689828A83E0225002E722BBFE0243
:0902C900E32289828A83E4932276
:1002D200BB010CE58229F582E5833AF583E02250E1
:1002E20006E92582F8E622BBFE06E92582F8E2222B
:0D02F200E58229F582E5833AF583E4932245
:1002FF00BB010FF8E58229F582E5833AF583E02803
:10030F00F0225009C58229F8E58226F622BBFE09A4
:10031F00C58229F8E22582F222F8EA2583F583E9DE
:03032F00932822EE
:10033200BB010689828A83F0225002F722BBFE01AA
:02034200F322A4
:10034400F8BB010DE58229F582E5833AF583E8F0EF
:10035400225006E92582C8F622BBFE05E92582C89B
:02036400F22283
:10036600EF8DF0A4A8F0CF8CF0A428CE8DF0A42EAB
:02037600FE2265
:0D037800EF2BFFEE3AFEED39FDEC38FC22D4
:0E038500C3EF9BFFEE9AFEED99FDEC98FC2273
:0E039300C3E49FFFE49EFEE49DFDE49CFC227B
:1003A100EB9FF5F0EA9E42F0E99D42F0EC6480C8D3
:0603B10064809845F02273
:1003B700BB010DE58229F582E5833AF583020447FF
:1003C7005007E92582F802043BBBFE07E92582F8BE
:1003D700020453E58229F582E5833AF58302045F37
:1003E700BB010DE58229F582E5833AF5830204B165
:1003F7005007E92582F80204A5BBFE07E92582F824
:040407000204BD220C
:10040B00BB010DE58229F582E5833AF58302047C75
:10041B005007E92582F802046FBBFE07E92582F835
:10042B00020488E58229F582E5833AF58302049577
:100DEE00020EF9E493A3F8E493A34003F68001F214
:100DFE0008DFF48029E493A3F85407240CC8C33306
:100E0E00C4540F4420C8834004F456800146F6DFD4
:100E1E00E4800B010204081020408090115DE47EF6
:100E2E00019360BCA3FF543F30E509541FFEE493C9
:100E3E00A360010ECF54C025E060A840B8E493A390
:100E4E00FAE493A3F8E493A3C8C582C8CAC583CABB
:100E5E00F0A3C8C582C8CAC583CADFE9DEE780BE73
:01118E000060
:0C043B00E6FC08E6FD08E6FE08E6FF22ED
:0C044700E0FCA3E0FDA3E0FEA3E0FF2228
:0C045300E2FC08E2FD08E2FE08E2FF22E5
:10045F00E493FC740193FD740293FE740393FF22E3
:0D046F00E6FB08E6F908E6FA08E6CBF822FD
:0C047C00E0F8A3E0F9A3E0FAA3E0FB2203
:0D048800E2FB08E2F908E2FA08E2CBF822F4
:10049500E493F8740193F9740293FA740393FB22BD
:0C04A500ECF608EDF608EEF608EFF62283
:0C04B100ECF0A3EDF0A3EEF0A3EFF022BE
:0C04BD00ECF208EDF208EEF208EFF2227B
:00000001FF
