:1000000009C021C020C01FC01EC01DC01CC01BC015
:100010001AC019C011241FBECFE9CDBF10E0A0E661
:10002000B0E0E0E1F1E003C0C89531960D92A23650
:10003000B107D1F710E0A2E6B0E001C01D92A236F0
:10004000B107E1F75BC0DCCF21E030E002C0220F56
:10005000331F8A95E2F7922F909588B3892388BB46
:100060000895CF938FEF88BBC6E08091600080FF3A
:1000700003C080E090E002C087E090E0E5DF80917F
:10008000600081FF03C081E090E002C087E090E063
:10009000DBDF8091600082FF03C082E090E002C05D
:1000A00087E090E0D1DF80E197E2F92FE82F3197E8
:1000B000F1F72FEF28BB0197F1F7C20FC7FFD5CF9C
:1000C000809160008F5F80936000873018F081E03E
:1000D00080936000CF910895E0E0F0E03FEF22E0F0
:1000E00018BA8E2F9F2F0197F1F738BB8E2F9F2FB5
:1000F0000197F1F7215027FFF3CF0895CFE9D0E022
:10010000DEBFCDBF8FEF87BB88BBE6DFAADFFECFA8
:020110000100EC
:00000001FF
