:100000002BC043C042C041C055C03FC03EC03DC0F0
:100010003CC03BC03AC039C038C037C036C035C01C
:1000200034C033C032C02800FFDBDBDBDB001F182D
:10003000F8181F00FFDBDBDBDB00FFDBDBDFF8009A
:10004000FFDBDBDBDB00FF1B1B1BFF00FF03FF03F2
:10005000FF0000000000000011241FBECFEDCDBF47
:1000600010E0A0E6B0E0E4E3F1E003C0C89531960B
:100070000D92A236B107D1F710E0A2E6B0E001C0C0
:100080001D92A336B107E1F744C0BACFCF93DF93F7
:10009000282F392F892B59F0A0EDB7E0C0E0D0E030
:1000A0008A2F9B2F0197F1F721503040C9F7DF913C
:1000B000CF9108951F920F920FB60F9211242F9394
:1000C0003F938F939F93EF93FF9380916200282F2C
:1000D000332780916000909161002817390714F050
:1000E0001092620080916200E82FFF27E85DFF4FC9
:1000F000C895902D98BB8F5F80936200FF91EF9120
:100100009F918F913F912F910F900FBE0F901F9055
:100110001895CFEDD0E0DEBFCDBF8FEF87BB89E074
:100120008EBD80E197E29BBD8ABD89B7806489BF9F
:040130007894FFCFF1
:020134002F009A
:00000001FF
