:100000000C946C000C940A020C9489000C948900E6
:100010000C9489000C9489000C9489000C9489003C
:100020000C9489000C9489000C9489000C9489002C
:100030000C9489000C9489000C9489000C9489001C
:100040000C9489000C9489000C9489000C9489000C
:100050000C9489000403090418037A0068006900FD
:10006000660065006E00670073006F006600740034
:100070000E03550053004200700072006700280311
:100080007700770077002E007A006800690066002C
:1000900065006E00670073006F00660074002E003C
:1000A00063006F006D000E035500530042007000A6
:1000B0007200670012011001FF000008EB03B4C7D3
:1000C0000101010200010902120001010080190969
:1000D000040000000000000011241FBECFE5D4E0A2
:1000E000DEBFCDBF10E0A0E6B0E0EAE3FCE202C074
:1000F00005900D92A236B107D9F710E0A2E6B0E064
:1001000001C01D92A33CB107E1F70E9407140C94B3
:100110001C160C94000085B7836085BF8BB7806484
:100120008BBF08950F931F93CF93DF936091890046
:1001300016160CF5635080918600C9E9D0E0C81B03
:10014000D109809185008D3209F44FC08091620001
:1001500087FD50C0CE010E9430138F3F09F487C045
:10016000882309F05BC02FEF30E0309362002093CA
:100170006000109289008091610084FF2AC0809104
:1001800060008F3F31F1682F893008F03EC0861B38
:10019000809360008091620080FF35C003EC8F5F28
:1001A0008093620087FD6BC0662309F456C08AE71E
:1001B00090E00E94C712682F7727162F693008F445
:1001C0007AC08FEF809360009EE100937900909356
:1001D00061009AE080B38C7009F0FAC09150D1F7B9
:1001E00010928A0010928400F3C08AE58093610027
:1001F0006830B9F020E030E830936200209360006E
:1002000010928900B8CF0BE4CACF68E0861B8093B8
:1002100060008091620080FFF6CFC0CF20E030E028
:10022000EBCF8881807609F05EC022E830E0109242
:1002300082008981882309F05EC010928300309388
:1002400088002093870022E030E88F818823A1F680
:100250008E81821788F6282FCFCF60E08AE790E062
:100260000E94060294E08FEF80936000AECF8093EF
:1002700060008EE1809361002FEF30E076CF209117
:1002800087003091880086FD20C0462F41504F3FA7
:1002900061F0F901942FAAE7B0E081918D9391501C
:1002A000E0F7240F311D2F5F3F4F309388002093DC
:1002B0008700772782CF8AE790E00E940602912F7D
:1002C0009C5F183008F081CFCECF462F41504F3F72
:1002D00061F3F901942FAAE7B0E084918D933196F0
:1002E0009150D8F7DECFCE010E942114282F8F3FE6
:1002F000A9F030E8AACF853059F08630A9F08830CF
:10030000E9F0893021F18A3041F120E030E89DCFD9
:100310008A8180938A0020E030E897CF888187FF28
:1003200023CF2E8130E021CF8B818130E9F08230E4
:1003300081F1833011F120E030EC87CF8CE890E040
:10034000909388008093870021E030E87ECF8A81F7
:1003500080938C0020E030E878CF309388002093A1
:10036000870021E030E871CF84EB90E09093880023
:100370008093870022E130EC68CF8A81882391F452
:1003800084E590E0909388008093870024E030EC2F
:100390005CCF86EC90E0909388008093870022E108
:1003A00030EC53CF813059F0823029F680E790E06D
:1003B00090938800809387002EE030EC46CF88E54C
:1003C00090E0909388008093870028E130EC3DCF47
:1003D000DF91CF911F910F910895A82FB92F8FEF23
:1003E0009FEF41E050EA615070F02D9138E0722F9C
:1003F000782796958795269570FF02C084279527C4
:100400003A95A9F7F0CF809590950895E6DF8D9302
:100410009D930895CF93CFB7CF93DF93839BFECF68
:10042000839B0BC0839B09C0839B07C0839B05C034
:10043000839B03C0839B01C086C06F93C0918600DD
:10044000DD27C357DF4F2F9365E5839B03C02F91B3
:100450006F91E6CF0F931F934F9320E040E15F939E
:1004600000B30C7003FB27F93F9350E03BE039C029
:100470001C7040642F77012F53501EC0406810B38A
:100480001C702F7753501FC0406400B32F770C703F
:10049000B1F15350000023C0406210B32F771C709D
:1004A00071F15350000025C00C701027515012F408
:1004B0005D5F0000115027952C3F10B3C8F61C70EB
:1004C0000127015027952C3FC8F64227499300B3D6
:1004D0000C7010274F73115027952C3FA8F64695A6
:1004E000469510B31C7059F00127015027952C3FF9
:1004F00098F66B5A60F3315000B3B0F61AC03B5017
:100500003195333010E41ABFB8F0C31BD0400881D6
:10051000033C59F10B3449F11981412F1F77209188
:100520008400121731F40936A9F10D3289F0013E29
:1005300079F0222720938B003F915F914F911F917B
:100540000F912F916F91DF91CF91CFBFCF911895E0
:1005500000938B003F915F914F911F910F912F91CD
:100560006F91CAB7C6FD5ACFEECF00918B00002322
:1005700019F310918900112341F5343042F1309381
:10058000890000938500109186003BE0311B309379
:1005900086001DC0009189000130BCF40AE530914D
:1005A000610034FD15C000936100C9E7D0E014C0BC
:1005B000052710E000C0000002BB1BC0052710E0AB
:1005C00000C01FC0052710E024C04AE502C032ED7C
:1005D000432FC4E1D0E032E011B31C60939A02B320
:1005E00011BB5CE020E86AE220FF052702BB2795EB
:1005F00017951C3FE8F66695B8F7B1F720FF052779
:10060000279502BB17951C3FC8F620FF05272795A5
:100610001795000000C002BB1C3FA0F629913A9537
:1006200011F7037F10918A0002BBC250D04011F035
:100630001093840010E41ABF086011B3137F402F99
:10064000437F54E05A95F1F702BB11BB42BB74CF14
:10065000000000000000089590E025E3822F8A95B5
:10066000F1F79F5F9A32D1F708958AE08A95F1F702
:10067000089580916400863109F4D4C0873108F46C
:100680006AC0893109F4F1C18A3109F42CC1883179
:1006900009F067C08FE99DE09093AC008093AB00B8
:1006A00088E79DE09093BE008093BD0087E59DE0C4
:1006B0009093C2008093C10082E79CE09093AE00CB
:1006C0008093AD0088E49DE09093A8008093A700FC
:1006D00080E79DE09093BA008093B90088E89CE0A1
:1006E0009093A6008093A50087E99CE09093B000CA
:1006F0008093AF0085EA9CE09093B4008093B300B0
:1007000080ED9CE09093A4008093A30088E39DE09B
:100710009093BC008093BB0080E29DE09093B60074
:100720008093B50088EE9CE09093C0008093BF005A
:100730008DEF9CE09093B8008093B70085E09DE03A
:100740009093B2008093B10089E09DE09093AA005D
:100750008093A9000895843109F4E8C1853109F432
:1007600023C183EB92E19093AC008093AB0083E8CC
:1007700092E19093BE008093BD008DE592E190934D
:10078000C2008093C10082E492E19093AE00809316
:10079000AD0083E392E19093A8008093A7008BE7DC
:1007A00092E19093BA008093B90084E292E1909331
:1007B000A6008093A50086E192E19093B00080931B
:1007C000AF008BEE91E19093B4008093B30082EA86
:1007D00091E19093A4008093A30089E691E1909326
:1007E000BC008093BB0083E891E19093B6008093B6
:1007F000B50086ED91E19093C0008093BF0082ED3B
:1008000091E19093B8008093B7008EEC91E19093C2
:10081000B2008093B10087EC91E19093AA0080939D
:10082000A900089589EB9BE09093AC008093AB0006
:1008300082E99BE09093BE008093BD008CE69BE034
:100840009093C2008093C10082E89AE09093AE003A
:100850008093AD008DE59BE09093A8008093A70066
:100860008AE89BE09093BA008093B9008DE99AE002
:100870009093A6008093A5008CEA9AE09093B00034
:100880008093AF008AEB9AE09093B4008093B3001A
:1008900085EE9AE09093A4008093A3008DE49BE002
:1008A0009093BC008093BB0085E39BE09093B600DF
:1008B0008093B5008DEF9AE09093C0008093BF00C5
:1008C00082E19BE09093B8008093B7008AE19BE0BF
:1008D0009093B2008093B1008EE19BE09093AA00C8
:1008E0008093A90008958FEB90E19093AC008093E2
:1008F000AB008FE890E19093BE008093BD008EE640
:1009000090E19093C2008093C10088E590E19093BC
:10091000AE008093AD0089E490E19093A8008093AD
:10092000A70087E890E19093BA008093B9008AE32A
:1009300090E19093A6008093A5008CE290E19093C3
:10094000B0008093AF0081E090E19093B400809379
:10095000B30085EB9FE09093A4008093A3008CE705
:100960009FE09093BC008093BB0086E99FE090934A
:10097000B6008093B5008CEE9FE09093C00080930A
:10098000BF0088EE9FE09093B8008093B70084EE9C
:100990009FE09093B2008093B1008DED9FE0909323
:1009A000AA008093A90008958BED99E09093AC0084
:1009B0008093AB008BEA99E09093BE008093BD00DA
:1009C0008AE899E09093C2008093C10084E799E09F
:1009D0009093AE008093AD0085E699E09093A800D7
:1009E0008093A70083EA99E09093BA008093B900BE
:1009F00086E599E09093A6008093A50088E499E0AD
:100A00009093B0008093AF008DE199E09093B40093
:100A10008093B30081ED98E09093A4008093A300AD
:100A200088E998E09093BC008093BB0082EB98E04B
:100A30009093B6008093B50088E099E09093C00051
:100A40008093BF0084E099E09093B8008093B70052
:100A500080E099E09093B2008093B10089EF98E034
:100A60009093AA008093A90008958FEB9EE0909345
:100A7000AC008093AB008EE99EE09093BE00809323
:100A8000BD0085EB9DE09093C2008093C1008DE78F
:100A90009EE09093AE008093AD008AE69EE0909336
:100AA000A8008093A7008BE89EE09093BA00809303
:100AB000B90088EB9DE09093A6008093A50089E59E
:100AC0009EE09093B0008093AF0082E29EE090930E
:100AD000B4008093B30084EE9DE09093A4008093D3
:100AE000A3008BEB9DE09093BC008093BB008FEB49
:100AF0009DE09093B6008093B5008CEB9DE09093C1
:100B0000C0008093BF0080EC9DE09093B80080937C
:100B1000B70081EC9DE09093B2008093B10082EC2D
:100B20009DE09093AA008093A90008958CEE97E031
:100B30009093AC008093AB008CEB97E09093BE0059
:100B40008093BD0086E997E09093C2008093C10036
:100B50008BE797E09093AE008093AD008CE697E032
:100B60009093A8008093A70084EB97E09093BA003D
:100B70008093B9008DE597E09093A6008093A5003F
:100B80008FE497E09093B0008093AF0084E297E009
:100B90009093B4008093B3008BED96E09093A40003
:100BA0008093A30082EA96E09093BC008093BB0000
:100BB0008CEB96E09093B6008093B5008FE097E0C1
:100BC0009093C0008093BF008BE097E09093B800B3
:100BD0008093B70087E097E09093B2008093B100D4
:100BE00080E097E09093AA008093A90008951BBA33
:100BF00018BA15BA82B38C7F82BB1ABA17BA14BA64
:100C000081B38C7F81BB08958BB38E7B8BBB88B304
:100C10008C7988BB85B3877E85BB8AB381648ABBA8
:100C200087B3836687BB84B3886184BB08958AB326
:100C30008E7B8ABB87B38C7987BB84B3877E84BB6A
:100C40008BB381648BBB88B3836688BB85B38861B3
:100C500085BB0895D99A0E942803D9980E94280339
:100C6000D99AB39906C095E3892F8A95F1F7B39B7A
:100C7000FBCF0895C49A0E941706C4980E942803C7
:100C8000B59B11C080E8B69980649C9980629B995D
:100C90008061B1998860B0998460C8998260CE9B68
:100CA00004C0816002C080E0EECFC49A9927089505
:100CB0001F93182FDD980E94040617FD2DC0C598BC
:100CC000812F992786FF14C0C69A85FF14C0AC9A5D
:100CD00084FF14C0AB9A83FF14C0C19A82FF14C072
:100CE000C09A81FF14C0D89A80FF14C0DE9A16C043
:100CF000C69885FDECCFAC9884FDECCFAB9883FD16
:100D0000ECCFC19882FDECCFC09881FDECCFD89894
:100D100080FDECCFDE9802C0C59AD2CF0E94280396
:100D2000DD9A0E942803DD980E9428031F910895F0
:100D3000AA98DC98662311F4919801C0919A0E94B8
:100D400058060895DC01CB0129E0B695A795979543
:100D500087952A95D1F761E00E94980691980E94A4
:100D60002A060895AA98DC9A662311F4919801C086
:100D7000919A0E9458060895FF920F931F938C0139
:100D8000F62EA998892F992761E00E94980660E0C5
:100D9000802F0E94980660E08F2D0E94B206A99ACB
:100DA0000E942803A9980E9428030E942A061F91E6
:100DB0000F91FF9008950F931F93DC01CB01042F37
:100DC000122FA998B695A7959795879560E00E94F0
:100DD000980660E0812F0E94B20661E0802F0E9499
:100DE000B206A99A0E942803A9980E9428031F917D
:100DF0000F910895AA9ADC9891980E945806089538
:100E000080E00E94FA06D79ADF989098089581E1D1
:100E10000E94FA06089580E10E94FA0608950F9351
:100E20001F938C0183E00E94FA06812F992761E0CD
:100E30000E94980660E0802F0E9498060E943A0661
:100E400099271F910F910895EF92FF920F931F938F
:100E50007B018C0182E00E94FA06D801C70179E08B
:100E6000B695A795979587957A95D1F761E00E94F9
:100E7000980616950795F794E79460E08E2D0E94EA
:100E80009806919A0E943A068093630091980E9476
:100E90003A0699271F910F91FF90EF9008951F93A5
:100EA000182F88E00E94FA0660E0812F0E949806C1
:100EB0000E943A0699271F9108951F93182F88E0E2
:100EC0000E94FA0660E0812F0E949806919A0E9483
:100ED0003A0699271F9108951F93182F80E20E94C8
:100EE000FA0660E0812F0E94B2060E942A0680E086
:100EF00090E01F9108951F93182F84E00E94FA0636
:100F0000112319F49198C2980CC0113029F01230B5
:100F100031F0919AC29805C0919AC29A02C09198F4
:100F2000C29A0E943A0699271F9108950F931F9322
:100F3000182F062F80E40E94FA0660E0812F0E949D
:100F4000B206002319F49198C29807C0013019F035
:100F50009198C29A02C0919AC2980E942A0680E093
:100F600090E01F910F91089580E80E94FA060E9478
:100F70002A0680E090E00895C298DD98D99AC49A34
:100F8000D79ADF9890988AE68A95F1F720E095E065
:100F9000DD9A892F8A95F1F7DD98892F8A95F1F7E7
:100FA0002F5F2A30A9F7A998DC98AA9891988AE629
:100FB0008A95F1F7909AD798DF9880E49FE101979E
:100FC000F1F780E00E944F0720E030E08F3F11F4FE
:100FD00021E030E0C901089580E488BB8EE38ABB3C
:100FE00084E187BB86E084BB81B3836081BBDB98EF
:100FF000DA9A80E49CE90197F1F708958BB3817741
:101000008BBB88B3877E88BBAE9891988AB38E6875
:101010008ABB87B3886187BBA69A899A08958AB3E9
:1010200081778ABB87B3877E87BBA69889988BB365
:101030008E688BBB88B3886188BBAE9A919A0895FD
:10104000C69A0E942803C6980E942803C69AB2999D
:1010500006C095E3892F8A95F1F7B29BFBCF0895DF
:10106000C59A0E940F08C5980E942803CB9B11C007
:1010700080E8CA99806481998062C9998061B49935
:101080008860B39984609E998260CF9B04C0816020
:1010900002C080E0EECFC59A992708951F93182FBC
:1010A000A9980E94FE0717FD2DC0DB98812F992774
:1010B00086FF14C0DA9A85FF14C0919A84FF14C089
:1010C000D99A83FF14C0C49A82FF14C0C39A81FFC7
:1010D00014C0AE9A80FF14C0DF9A16C0DA9885FD5E
:1010E000ECCF919884FDECCFD99883FDECCFC498D8
:1010F00082FDECCFC39881FDECCFAE9880FDECCFA4
:10110000DF9802C0DB9AD2CF0E942803A99A0E94DE
:101110002803A9980E9428031F910895C1989798C1
:10112000662311F4C79801C0C79A0E944E0808951B
:10113000DC01CB0129E0B695A795979587952A956F
:10114000D1F761E00E948E08C7980E942008089598
:10115000C198979A662311F4C79801C0C79A0E9454
:101160004E080895FF920F931F938C01F62EC0989E
:10117000892F992761E00E948E0860E0802F0E94ED
:101180008E0860E08F2D0E94A808C09A0E94280354
:10119000C0980E9428030E9420081F910F91FF9081
:1011A00008950F931F93DC01CB01042F122FC098D9
:1011B000B695A7959795879560E00E948E0860E0A8
:1011C000812F0E94A80861E0802F0E94A808C09A81
:1011D0000E942803C0980E9428031F910F91089530
:1011E000C19A9798C79895E09A95F1F70E944E0892
:1011F000089580E00E94F008D59ADD98AF98089590
:1012000081E10E94F008089580E10E94F0080895AD
:101210000F931F938C0183E00E94F008812F992780
:1012200061E00E948E0860E0802F0E948E080E947C
:10123000300899271F910F910895EF92FF920F9315
:101240001F937B018C0182E00E94F008D801C70146
:1012500079E0B695A795979587957A95D1F761E04E
:101260000E948E0816950795F794E79460E08E2DFE
:101270000E948E08C79A0E94300880936300C79826
:101280000E94300899271F910F91FF90EF900895C9
:101290001F93182F88E00E94F00860E0812F0E94C1
:1012A0008E080E94300899271F9108951F93182FC8
:1012B00088E00E94F00860E0812F0E948E08C79AA3
:1012C0000E94300899271F9108951F93182F80E2DC
:1012D0000E94F00860E0812F0E94A8080E94200868
:1012E00080E090E01F9108951F93182F84E00E94E2
:1012F000F008112319F4C798D89807C0113019F0D5
:10130000C79AD89802C0C79AD89A0E9430089927DD
:101310001F9108950F931F93182F062F80E40E94AA
:10132000F00860E0812F0E94A808002319F4C798F4
:10133000D89802C0C79AD8980E94200880E090E010
:101340001F910F91089580E80E94F0080E942008E4
:1013500080E090E00895D898A998C69AC59AD59A41
:10136000DD98AF988AE68A95F1F720E095E0A99A92
:10137000892F8A95F1F7A998892F8A95F1F72F5F20
:101380002A30A9F7C0989798C198C7988AE68A9595
:10139000F1F7AF9AD598DD9880E49FE10197F1F7D6
:1013A00080E00E94480920E030E08F3F11F421E006
:1013B00030E0C901089584E088BB81E78ABB83EEF1
:1013C00087BB82E884BB8F9ADC98DE9A80E49CE934
:1013D0000197F1F7089588B3887188BBAD98979805
:1013E00087B3876E87BBA59A8F9A089587B3887154
:1013F00087BBA5988F9888B3876E88BBAD9A979A5C
:1014000008951F93182FD9980E94EB0917FD2DC03E
:10141000C098812F992786FF14C0C19A85FF14C0F8
:10142000C29A84FF14C0C59A83FF14C0C69A82FF73
:1014300014C0C79A81FF14C0979A80FF14C0AD9A58
:1014400016C0C19885FDECCFC29884FDECCFC5983D
:1014500083FDECCFC69882FDECCFC79881FDECCF21
:10146000979880FDECCFAD9802C0C09AD2CF85E3AB
:10147000982F9A95F1F7D99A982F9A95F1F7D998CC
:101480008A95F1F71F910895919A0E94F609919813
:1014900085E38A95F1F7B09B11C080E8B19980642B
:1014A000B2998062B5998061B6998860B79908C091
:1014B000879909C09D9B09C0816007C080E0EECF7D
:1014C0008460879BF7CF8260F5CF919A9927089522
:1014D000AC9ADD98DB980E94010A0895AC98DD9AD9
:1014E000662311F4DB9801C0DB9A0E94010A08957B
:1014F000AC98DD98662311F4DB9801C0DB9A0E945A
:10150000010A08951F93182F84E00E94680A11238E
:1015100019F4DB98AC980CC0113029F0123031F07E
:10152000DB9AAC9805C0DB9AAC9A02C0DB98AC9A07
:101530000E94440A99271F9108951F93182F88E04D
:101540000E94680A60E0812F0E94780ADB9A0E945C
:10155000440A99271F9108951F93182F88E00E942D
:10156000680A60E0812F0E94780A0E94440A992745
:101570001F910895EF92FF920F931F937B018C01AF
:1015800082E00E94680AD801C70129E0B695A795B4
:10159000979587952A95D1F761E00E94780A16956C
:1015A0000795F794E79460E08E2D0E94780ADB9A05
:1015B0000E94440A80936300DB980E94440A9927A2
:1015C0001F910F91FF90EF9008950F931F93DC01EF
:1015D000CB01042F122FB695A7959795879560E0BC
:1015E0000E94780A60E0812F0E946E0A61E0802FDD
:1015F0000E946E0A1F910F9108950F931F938C0103
:1016000083E00E94680A812F992761E00E94780A8E
:1016100060E0802F0E94780A0E94440A99271F9157
:101620000F91089580E10E94680A61E080E00E94C5
:10163000780A089581E10E94680A089580E00E9476
:10164000680AD79ADF9890980895DA9A0E9428033A
:10165000DA980E942803DA9AB39906C095E3892F95
:101660008A95F1F7B39BFBCF0895FF920F931F93D9
:101670008C01F62E892F992761E00E94780A60E09C
:10168000802F0E94780A60E08F2D0E946E0A0E94CF
:10169000250B1F910F91FF900895DC01CB0169E0AC
:1016A000B695A795979587956A95D1F761E00E94C1
:1016B000780ADB980E94250B08951F93182F80E26B
:1016C0000E94680A60E0812F0E946E0A0E94250B2A
:1016D00080E090E01F9108950F931F93182F062F1D
:1016E00080E40E94680A60E0812F0E946E0A002355
:1016F00019F4DB98AC9807C0013019F0DB98AC9A6C
:1017000002C0DB9AAC980E94250B80E090E01F910C
:101710000F91089580E80E94680A0E94250B80E0DE
:1017200090E00895D79ADF9890988AE68A95F1F725
:1017300020E095E0D99A892F8A95F1F7D998892FD9
:101740008A95F1F72F5F2A30A9F7909AD798DF98FA
:1017500080EA9FE00197F1F7DA9A919A80E00E947F
:10176000AC0A20E030E08F3F11F421E030E0C90105
:10177000089588E088BB8FEE8ABB80E184BB81B38B
:10178000836081BBD9989198DA98DB98DD98AC9802
:10179000DE98D89A80E49CE90197F1F70895D898EB
:1017A00088B3887788BB85B38F7C85BB9798D09AA0
:1017B00087B3876887BB84B3806384BB8F9A08959F
:1017C000D09887B3887787BB84B38F7C84BB8F988E
:1017D000D89A88B3876888BB85B3806385BB979A9E
:1017E00008951F93182FDA980E94CF0B17FD2DC074
:1017F000AC98812F992786FF14C0AD9A85FF14C03D
:10180000979A84FF14C0C79A83FF14C0C29A82FFBC
:1018100014C0C19A81FF14C0C09A80FF14C0D89A26
:1018200016C0AD9885FDECCF979884FDECCFC79896
:1018300083FDECCFC29882FDECCFC19881FDECCF47
:10184000C09880FDECCFD89802C0AC9AD2CF85E387
:10185000982F9A95F1F7DA9A982F9A95F1F7DA98E6
:101860008A95F1F71F910895DB9A0E94E00BDB98AF
:1018700085E38A95F1F79C9B11C080E89D9980646F
:1018800087990EC0B7990FC0B2998860B1998460EA
:10189000B0998260C89B09C0816007C080E0EECF2C
:1018A0008062B79BF1CF8061EFCFDB9A99270895D3
:1018B000C39AAE98C4980E94F10B0895C398AE9A4B
:1018C000662311F4C49801C0C49A0E94F10B0895D4
:1018D000C398AE98662311F4C49801C0C49A0E94BC
:1018E000F10B08951F93182F84E00E94580C1123C8
:1018F00019F4C498C39807C0113019F0C49AC3985A
:1019000002C0C49AC39A0E94340C99271F9108956B
:101910001F93182F88E00E94580C60E0812F0E94CE
:10192000680CC49A0E94340C99271F9108951F9344
:10193000182F88E00E94580C60E0812F0E94680CEC
:101940000E94340C99271F910895EF92FF920F93F4
:101950001F937B018C0182E00E94580CD801C701C3
:1019600029E0B695A795979587952A95D1F761E0D7
:101970000E94680C16950795F794E79460E08E2D09
:101980000E94680CC49A0E94340C80936300C4982F
:101990000E94340C99271F910F91FF90EF900895AA
:1019A0000F931F93DC01CB01042F122FB695A7953F
:1019B0009795879560E00E94680C60E0812F0E94F7
:1019C0005E0C61E0802F0E945E0C1F910F910895C4
:1019D0000F931F938C0183E00E94580C812F99274D
:1019E00061E00E94680C60E0802F0E94680C0E94F9
:1019F000340C99271F910F91089580E10E94580C93
:101A000061E080E00E94680C089581E10E94580C1A
:101A1000089580E00E94580CD69ADE98A898089500
:101A2000DF9A0E942803DF980E942803DF9ACD994D
:101A300006C095E3892F8A95F1F7CD9BFBCF0895DA
:101A4000FF920F931F938C01F62E892F992761E047
:101A50000E94680C60E0802F0E94680C60E08F2D6F
:101A60000E945E0C0E94100D1F910F91FF9008952F
:101A7000DC01CB0169E0B695A795979587956A95A6
:101A8000D1F761E00E94680CC4980E94100D08957F
:101A90001F93182F80E20E94580C60E0812F0E9453
:101AA0005E0C0E94100D80E090E01F9108950F934E
:101AB0001F93182F062F80E40E94580C60E0812F9E
:101AC0000E945E0C002319F4C498C39802C0C49A03
:101AD000C3980E94100D80E090E01F910F9108952F
:101AE00080E80E94580C0E94100D80E090E008955C
:101AF000D69ADE98A8988AE68A95F1F720E095E0D4
:101B0000DA9A892F8A95F1F7DA98892F8A95F1F771
:101B10002F5F2A30A9F7A89AD698DE9880EA9FE02E
:101B20000197F1F7DF9ADB9A80E00E94970C20E0A2
:101B300030E08F3F11F421E030E0C901089580E2E8
:101B40008BBB8EEE8ABB88E187BB81E484BB899A1C
:101B5000DA98DB98DF98C498AE98C3989198D99A90
:101B600080E49CE90197F1F7089580E090E0089502
:101B700080E090E00895089580E090E00895089551
:101B80000895089515BC13BC0895FF920F931F93F9
:101B9000182FFF2400E00EC09198FF0CCA99F3940F
:101BA000DB9A0E943503DB980E9435030F5F0830F3
:101BB00029F0110F17FFF0CF919AEFCF8F2D9927B2
:101BC0001F910F91FF900895CF92DF92EF92FF92B5
:101BD0000F931F937B018C01C42ED22E80E40E94B0
:101BE000C50D0894E108F10801091109BB27A12FCF
:101BF000902F8F2D0894E11CF11C011D111D0E94D6
:101C0000C50D8E2D81500E94C50D8D2D0E94C50DD4
:101C10000E942C0380E40E94C50DBB27A12F902FAA
:101C20008F2D0E94C50D8E2D0E94C50D8C2D0E94FA
:101C3000C50D0E942C031F910F91FF90EF90DF9034
:101C4000CF900895EF92FF920F931F937B018C0129
:101C500080E20E94C50D0894E11CF11C011D111DBC
:101C6000BB27A12F902F8F2D0894E108F1080109BF
:101C700011090E94C50D8E2D8F5F0E94C50D80E059
:101C80000E94C50D8093630080E20E94C50DBB27B2
:101C9000A12F902F8F2D0E94C50D8E2D0E94C50D56
:101CA00080E00E94C50D99271F910F91FF90EF9042
:101CB00008951F93182F88E20E94C50D812F0E945E
:101CC000C50D80E00E94C50D80E00E94C50D9927DA
:101CD0001F9108951F93182F8CEA0E94C50D812F24
:101CE000806E0E94C50D80E00E94C50D80E00E94BC
:101CF000C50D80E090E01F91089584E20E94C50D1B
:101D000080E00E94C50D80E00E94C50D80E00E9429
:101D1000C50D992708958CEA0E94C50D80E80E94A0
:101D2000C50D80E00E94C50D80E00E94C50D80E4D5
:101D30009CE90197F1F780E090E008951F931FE17F
:101D400009C0DB9A0E943503DB980E9435031150CD
:101D50001F3F89F08CEA0E94C50D83E50E94C50DE6
:101D600080E00E94C50D80E00E94C50D893649F7CC
:101D700080E090E002C081E090E01F91089584E04F
:101D80008BBB89E28ABB82E087BB81B3826881BB5F
:101D900013BC89E185BD9198DD98DB98C198D89AEC
:101DA00080E49CE90197F1F7DD9A80EA9FE0FC016D
:101DB0003197F1F7DD98FC013197F1F7DD9A019742
:101DC000F1F708958BB381778BBB88B3877E88BB8F
:101DD000AE9891988AB38E688ABB87B3886187BBB7
:101DE000A69A899A08958AB381778ABB87B3877E3A
:101DF00087BBA69889988BB38E688BBB88B38861A4
:101E000088BBAE9A919A0895A99A0E942803A9982E
:101E10000E942803A99ACE9906C095E3892F8A9536
:101E2000F1F7CE9BFBCF0895AA9A0E94F30EAA98D1
:101E30000E942803CB9B11C080E8CA9980648199D5
:101E40008062C9998061B4998860B39984609E99D1
:101E50008260CF9B04C0816002C080E0EECFAA9A6E
:101E6000992708951F93182F97980E94E20E17FD47
:101E70002DC0DB98812F992786FF14C0DA9A85FF41
:101E800014C0919A84FF14C0D99A83FF14C0C49AD5
:101E900082FF14C0C39A81FF14C0AE9A80FF14C0A1
:101EA000DF9A16C0DA9885FDECCF919884FDECCFCF
:101EB000D99883FDECCFC49882FDECCFC39881FD07
:101EC000ECCFAE9880FDECCFDF9802C0DB9AD2CF8A
:101ED0000E942803979A0E94280397980E9428033B
:101EE0001F910895C598C298662311F4DE9801C029
:101EF000DE9A0E94320F0895DC01CB0129E0B695ED
:101F0000A795979587952A95D1F761E00E94720F62
:101F1000DE980E94040F0895C598C29A662311F4B2
:101F2000DE9801C0DE9A0E94320F0895FF920F934F
:101F30001F938C01F62EC698892F992761E00E9485
:101F4000720F60E0802F0E94720F60E08F2D0E9460
:101F50008C0FC69A0E942803C6980E9428030E94EC
:101F6000040F1F910F91FF9008950F931F93DC01B1
:101F7000CB01042F122FC698B695A79597958795F4
:101F800060E00E94720F60E0812F0E948C0F61E080
:101F9000802F0E948C0FC69A0E942803C6980E9428
:101FA00028031F910F910895C59AC298DE9895E075
:101FB0009A95F1F70E94320F089580E00E94D40FA5
:101FC000D59ADD98AF98089581E10E94D40F0895C5
:101FD00080E10E94D40F08950F931F938C0183E03A
:101FE0000E94D40F812F992761E00E94720F60E058
:101FF000802F0E94720F0E94140F99271F910F913A
:102000000895EF92FF920F931F937B018C0182E062
:102010000E94D40FD801C70179E0B695A79597958E
:1020200087957A95D1F761E00E94720F1695079512
:10203000F794E79460E08E2D0E94720FDE9A0E9462
:10204000140F80936300DE980E94140F99271F914C
:102050000F91FF90EF9008951F93182F88E00E9432
:10206000D40F60E0812F0E94720F0E94140F9927F5
:102070001F9108951F93182F88E00E94D40F60E0ED
:10208000812F0E94720FDE9A0E94140F99271F91D0
:1020900008951F93182F80E20E94D40F60E0812FD3
:1020A0000E948C0F0E94040F80E090E01F91089521
:1020B0001F93182F84E00E94D40F112319F4DE9887
:1020C000C09807C0113019F0DE9AC09802C0DE9A9D
:1020D000C09A0E94140F99271F9108950F931F9380
:1020E000182F062F80E40E94D40F60E0812F0E94F9
:1020F0008C0F002319F4DE98C09802C0DE9AC098B5
:102100000E94040F80E090E01F910F91089580E8F5
:102110000E94D40F0E94040F80E090E00895C098C0
:102120009798A99AAA9AD59ADD98AF988AE68A953F
:10213000F1F720E095E0979A892F8A95F1F7979823
:10214000892F8A95F1F72F5F2A30A9F7C698C29890
:10215000C598DE988AE68A95F1F7AF9AD598DD980A
:1021600080E49FE10197F1F780E00E942C1020E0CD
:1021700030E08F3F11F421E030E0C901089580E1A3
:102180008BBB81E78ABB87E687BB86E884BB8F9AD7
:10219000C198D89A80E49CE90197F1F708958BB330
:1021A00081778BBB88B3877E88BBAE9891988AB3C2
:1021B0008E688ABB87B3886187BBA69A899A08957F
:1021C0008AB381778ABB87B3877E87BBA6988998B5
:1021D0008BB38E688BBB88B3886188BBAE9A919AAB
:1021E0000895C59A0E942803C5980E942803C59A9D
:1021F000B79906C095E3892F8A95F1F7B79BFBCF76
:102200000895C69A0E94E010C6980E942803CB9BAE
:1022100011C080E8CA99806481998062C9998061FF
:10222000B4998860B39984609E998260CF9B04C002
:10223000816002C080E0EECFC69A992708951F936F
:10224000182FAD980E94CF1017FD2DC0DB98812F5D
:10225000992786FF14C0DA9A85FF14C0919A84FFEB
:1022600014C0D99A83FF14C0C49A82FF14C0C39AC1
:1022700081FF14C0AE9A80FF14C0DF9A16C0DA98AE
:1022800085FDECCF919884FDECCFD99883FDECCF00
:10229000C49882FDECCFC39881FDECCFAE9880FD51
:1022A000ECCFDF9802C0DB9AD2CF0E942803AD9A10
:1022B0000E942803AD980E9428031F910895C0989A
:1022C000C198662311F4C29801C0C29A0E941F11DE
:1022D0000895DC01CB0129E0B695A79597958795E0
:1022E0002A95D1F761E00E945F11C2980E94F11017
:1022F0000895C098C19A662311F4C29801C0C29A89
:102300000E941F110895FF920F931F938C01F62EC8
:10231000D898892F992761E00E945F1160E0802F93
:102320000E945F1160E08F2D0E947911D89A0E945F
:102330002803D8980E9428030E94F1101F910F9142
:10234000FF9008950F931F93DC01CB01042F122FF0
:10235000D898B695A7959795879560E00E945F11EC
:1023600060E0812F0E94791161E0802F0E94791135
:10237000D89A0E942803D8980E9428031F910F9191
:102380000895C09AC198C2980E941F11089580E0D4
:102390000E94C111D59ADD98AF98089581E10E94FD
:1023A000C111089580E10E94C11108950F931F93F8
:1023B0008C0183E00E94C111812F992761E00E9466
:1023C0005F1160E0802F0E945F110E940111992728
:1023D0001F910F910895EF92FF920F931F937B012E
:1023E0008C0182E00E94C111D801C70179E0B69545
:1023F000A795979587957A95D1F761E00E945F112F
:1024000016950795F794E79460E08E2D0E945F1172
:10241000C29A0E94011180936300C2980E94011128
:1024200099271F910F91FF90EF9008951F93182FF8
:1024300088E00E94C11160E0812F0E945F110E941C
:10244000011199271F9108951F93182F88E00E946A
:10245000C11160E0812F0E945F11C29A0E94011198
:1024600099271F9108951F93182F80E20E94C11190
:1024700060E0812F0E9479110E94F11080E090E0CD
:102480001F9108951F93182F84E00E94C1111123FA
:1024900019F4C29897980CC0113029F0123031F01D
:1024A000C29A979805C0C29A979A02C0C298979A02
:1024B0000E94011199271F9108950F931F93182FC0
:1024C000062F80E40E94C11160E0812F0E947911E3
:1024D000002319F4C298979807C0013019F0C298E8
:1024E000979A02C0C29A97980E94F11080E090E0FB
:1024F0001F910F91089580E80E94C1110E94F11070
:1025000080E090E008959798AD98C59AC69AD59ABC
:10251000DD98AF988AE68A95F1F720E095E0AD9ACC
:10252000892F8A95F1F7AD98892F8A95F1F72F5F5A
:102530002A30A9F7D898C198C098C2988AE68A9597
:10254000F1F7AF9AD598DD9880E49FE10197F1F714
:1025500080E00E94161220E030E08F3F11F421E06D
:1025600030E0C901089580E888BB81E68ABB87E630
:1025700087BB80EB84BB8F9AAC98DE9A80E49CE9A1
:102580000197F1F7089594980895949A08950F93F8
:102590001F93CF93DF93EC01062F90916500892F55
:1025A0008250823018F08FEF90E055C0662309F416
:1025B0004EC010E02BC0209171003091720040910C
:1025C000730050917400C90181709070892B71F172
:1025D000FE01E10FF11D8091630080838091710005
:1025E00090917200A0917300B09174000196A11DAA
:1025F000B11D8093710090937200A0937300B0930B
:1026000074001F5F0117F1F090916500923099F20C
:10261000E091BF00F091C000809171009091720034
:102620000995FE01E10FF11D8083D8CFE091B30041
:10263000F091B400CA01B9010995FE01E10FF11D45
:102640008083CCCF083018F0802F992704C01092D7
:102650006500802F9927DF91CF911F910F910895E9
:10266000BF92CF92DF92EF92FF920F931F93CF937F
:10267000DF93EC01C62E80916500813029F0843013
:1026800019F08FEF90E0B9C0CC2009F4B4C0BB249E
:10269000DD244EC0FE01ED0DF11D808180936300AD
:1026A00080917800815080937800882309F472C06B
:1026B00080916600909167000197909367008093E6
:1026C0006600892B11F5109265008091770081FFDB
:1026D00075C080917800992720917500309176001F
:1026E0008217930709F46AC0E091BB00F091BC0027
:1026F000C801B701099591E0B92EE0907100F09002
:10270000720000917300109174000894E11CF11C98
:10271000011D111DE0927100F09272000093730090
:1027200010937400D394CD1409F44BC080916500CC
:10273000813009F049C08091750090917600892B15
:1027400009F49FCFE0907100F09072000091730047
:1027500010917400E0FE9ECFFE01ED0DF11DA091E1
:10276000A300B091A400209163004081C801B7018B
:10277000FD010995E0907100F090720000917300E6
:1027800010917400809178008150809378008823A4
:1027900009F08ECFE091BB00F091BC00C801B701F9
:1027A00009958091750080937800E0907100F09019
:1027B000720000917300109174007ACF81E0B82EFE
:1027C000A4CF8B2D992719C0FE01ED0DF11D20918D
:1027D000B5003091B60060818091710090917200D7
:1027E000F9010995E0907100F0907200009173007A
:1027F000109174005DCF80E090E0DF91CF911F9148
:102800000F91FF90EF90DF90CF90BF9008951BBA8B
:1028100018BA15BA1ABA17BA14BA80E182BB88E39B
:1028200081BB9EEF8FEF9150F1F78150E1F780E38C
:1028300081BB0E9439030E948B0078940E94920011
:10284000FDCFCF93DF93EC018981813009F4C1C0C2
:10285000823009F4DBC0833011F18430D9F1873044
:1028600009F4E0C0853009F46DC1863009F45CC01C
:10287000883009F428C1893079F481E080936800B8
:102880008A819B81AC81BD8180937100909372009D
:10289000A0937300B093740020E030E0C3C19A812C
:1028A000992309F478C0913009F442C1923009F4B7
:1028B0005CC1933009F47CC1892F8F70843009F496
:1028C00094C1953009F4F0C0963009F445C124E074
:1028D00030E0A8C1809168008823A1F48B819927FA
:1028E000982F88272A813327822B932BAA2797FD9D
:1028F000A095BA2F8093710090937200A0937300FB
:10290000B09374008F819927982F88272E813327C1
:10291000822B932B909367008093660082E08093D4
:1029200065002FEF30E07EC180916800882309F4B4
:10293000A6C08C81482F55274F5F5F4F8D81282F70
:102940002F70209377009927807F907082959295C1
:10295000907F9827807F9827480F591F50937600C3
:102960004093750020FD88C08F819927982F882774
:102970002E813327822B932B9093670080936600E0
:1029800081E080936500E091B700F091B80009956F
:102990002FEF30E047C1E091AF00F091B00080E050
:1029A000099580936900E091AF00F091B00081E05B
:1029B000099580936A00E091AF00F091B00082E049
:1029C000099580936B0082E080936C0024E030E0F6
:1029D00029C18B81809364000E94390310926800A2
:1029E000E091AB00F091AC0009950E94C31285E024
:1029F0008093690089E880936A0080EF80936B0080
:102A000082E080936C0024E030E00CC1E091A900EA
:102A1000F091AA0009950E94F7050E94C51220E0D6
:102A200030E000C1809168008823A1F48B81992750
:102A3000982F88272A813327822B932BAA2797FD4B
:102A4000A095BA2F8093710090937200A0937300A9
:102A5000B09374008F819927982F88272E81332770
:102A6000822B932B909367008093660083E0809382
:102A700065002FEF30E0D6C04093780075CF8B8192
:102A80009927982F88272A813327822B932BAA27CF
:102A900097FDA095BA2F8093710090937200A09338
:102AA0007300B093740045CFE091AD00F091AE009B
:102AB00083E009958093690089E880936A0080EF3C
:102AC00080936B009DCF809168008823A1F48B8157
:102AD0009927982F88272A813327822B932BAA277F
:102AE00097FDA095BA2F8093710090937200A093E8
:102AF0007300B093740010927600109275001092DB
:102B000077008F819927982F88272E813327822B52
:102B1000932B909367008093660084E08093650018
:102B2000E091B100F091B20009952FEF30E07AC04A
:102B30008B81823309F0CBCEE091B900F091BA00DD
:102B4000099556CFE091BD00F091BE0009958093A4
:102B5000690021E030E066C0E091A700F091A80094
:102B60008B81099580936900A7CFE091A500F09132
:102B7000A60080E0099580936900E091A500F0919E
:102B8000A60081E0099580936A00E091A500F0918C
:102B9000A60082E0099580936B00E091A500F0917A
:102BA000A60083E0099580936C0024E030E03AC0F1
:102BB000E091AD00F091AE0080E00995809369004E
:102BC000E091AD00F091AE0081E0099580936A003C
:102BD0008B81823009F473CFE091AD00F091AE00AB
:102BE00082E0099580936B000BCFE091C100F091DA
:102BF000C20060E08B810995E091C100F091C200B4
:102C000061E08C8109958A81807F803319F0109270
:102C1000690052CFE091C100F091C20062E08D8165
:102C20000995F5CF89E690E090938800809387001E
:0A2C3000C901DF91CF910895FFCF95
:022C3A00FF5A3F
:00000001FF
