:1000000012C02CC02BC02AC03BC028C027C026C0AD
:1000100026C024C023C022C021C020C01FC01EC0D3
:100020001DC01CC01BC011241FBECFE5D4E0DEBF25
:10003000CDBF11E0A0E6B0E0E8E0FAE102C0059033
:100040000D92A239B107D9F711E0A2E9B1E001C0E0
:100050001D92A63DB107E1F7A7D2D4CCD1CF1F9214
:100060000F920FB60F9211248F93809192018F5FA0
:10007000809392018F910F900FBE0F901F90189553
:100080001F920F920FB60F9211242F923F924F9210
:100090005F926F927F928F929F92AF92BF92CF9218
:1000A000DF92EF92FF920F931F932F933F934F9303
:1000B0005F936F937F938F939F93AF93BF93EF93D0
:1000C000FF93DF93CF93CDB7DEB72897DEBFCDBFC9
:1000D0008091990190919A01A0919B01B0919C010E
:1000E0000196A11DB11D8093990190939A01A0934F
:1000F0009B01B0939C01809193018F5F809393014A
:1001000090E083709070892B09F0FAC0ECB4E09213
:10011000B101FF2400E010E02DB52093AA01609109
:10012000920130E040E050E0542F432F322F22273D
:10013000862F90E0A0E0B0E0DC0199278827282BEB
:10014000392B4A2B5B2B2E293F29402B512B6093B7
:10015000A501E090CE01F090CF010091D001109167
:10016000D101E982FA820B831C83E092D201F092E2
:10017000D3010093D4011093D5018091CA019091CD
:10018000CB01A091CC01B091CD018D839E83AF8333
:10019000B8878093CE019093CF01A093D001B09304
:1001A000D1012090C6013090C7014090C801509005
:1001B000C9012092CA013092CB014092CC015092E9
:1001C000CD016090C2017090C3018090C4019090F5
:1001D000C5016092C6017092C7018092C8019092D9
:1001E000C901A090BE01B090BF01C090C001D090E5
:1001F000C101A092C201B092C301C092C401D092C9
:10020000C5016091BA017091BB018091BC019091D0
:10021000BD016093BE017093BF018093C0019093B4
:10022000C101E090B601F090B7010091B8011091C2
:10023000B901E092BA01F092BB010093BC011093A6
:10024000BD012093B6013093B7014093B80150939C
:10025000B9012093AD013093AE014093AF015093AB
:10026000B0016E0D7F1D801F911F6A0D7B1D8C1DBF
:100270009D1D660D771D881D991D620D731D841DC2
:10028000951DED80FE800F8118856E0D7F1D801FEE
:10029000911FE980FA800B811C816E0D7F1D801FEC
:1002A000911F620F731F841F951F23E096958795FA
:1002B000779567952A95D1F7CED86093B201709360
:1002C000B3018093B4019093B501E9D4C4D820E878
:1002D00036E948E151E4A7D621EA33EE40E85FE38E
:1002E000A2D6DDD460939D0170939E0180939F01FF
:1002F0009093A001109292011DBC1CBC1DBC1CBCA3
:100300002896DEBFCDBFCF91DF91FF91EF91BF91D6
:10031000AF919F918F917F916F915F914F913F919D
:100320002F911F910F91FF90EF90DF90CF90BF9092
:10033000AF909F908F907F906F905F904F903F9085
:100340002F900F900FBE0F901F9018951FBC87E045
:100350008EBD85BD089584E489BF109292011DBCB5
:100360001CBC1DBC1CBC7894089580E0B6D1BC01B7
:1003700080E090E00895EF92FF920F931F937B012E
:100380008C0180E090E060E070E084D280E090E05A
:1003900060E070E07FD2D801C701885E9340A04042
:1003A000B04087559E43AF40B04058F4C801B701F4
:1003B00043E023E0F9D280E690E05FD284E690E06B
:1003C0005CD280E4E81682E4F8068FE0080780E05B
:1003D00018075CF0C801B70146E024E0E5D28BE6DF
:1003E00090E04BD28FE690E048D228EEE21623E070
:1003F000F20620E0020720E012075CF4C801B70112
:1004000040E020E0D1D285E790E037D288E790E065
:1004100034D280E090E061E070E03CD280E05DD1D9
:100420007C01F8D381E890E028D200E010E0C80118
:10043000B70111D820E030EC4FE754E4E9D628E4C6
:1004400031EE42EA50E4EFD57B018C0120E030E050
:100450004AE754E4E8D523D4DC01CB01DBD383E8BD
:1004600090E00BD2C801B70120E030E048E452E44C
:10047000CFD62DEC3CEC4CEC5DE3CAD620E030E06E
:100480004AE754E4D0D50BD4DC01CB01C3D387E8D1
:1004900090E0F3D11F910F91FF90EF900895EF92AC
:1004A000FF920F931F93F8941092B6011092B70128
:1004B0001092B8011092B9011092BA011092BB01CA
:1004C0001092BC011092BD011092BE011092BF01AA
:1004D0001092C0011092C1011092C2011092C3018A
:1004E0001092C4011092C5011092C6011092C7016A
:1004F0001092C8011092C90185E390E060E040E0ED
:1005000021E056D085E390E060E040E021E086D035
:10051000DAD082E390E060E040E025E049D082E379
:1005200090E060E040E025E079D01FBC87E08EBD20
:1005300085BD11DF8091990190919A01A0919B0155
:10054000B0919C019093AC018093AB018091AB0181
:100550009091AC0107969C0140E050E08091990198
:1005600090919A01A0919B01B0919C0179018A011F
:10057000E81AF90A0A0B1B0B17FFF0CF80919901BB
:1005800090919A01A0919B01B0919C019093AC0134
:100590008093AB0160919D0170919E0180919F01BC
:1005A0009091A001E8DED2CFF8947ED178DFFECF23
:1005B000542F6623C9F4FC01429187E090E0821B2E
:1005C00091092FEF30E0B90102C0759567958A95C2
:1005D000E2F7CB0102C0220F331F5A95E2F78223C4
:1005E00080958423808308956130B9F4FC014291A1
:1005F00087E090E0821B91092FEF30E0B90102C043
:10060000759567958A95E2F7CB0102C0220F331FDB
:100610005A95E2F78223842B80830895FC01942F5E
:10062000422F50E06130A9F4808127E030E0241BA4
:10063000350B4FEF50E0BA0102C0759567952A95CA
:10064000E2F79B0102C0440F551F9A95E2F724235D
:1006500015C0808127E030E0241B350B4FEF50E0C0
:10066000BA0102C0759567952A95E2F79B0102C011
:10067000440F551F9A95E2F724232095282B2083B9
:100680000895282F22952F708295807F282B30E0A7
:10069000C90183739070880F991F880F991F2C7C54
:1006A00030703595279535952795822B282F30E08A
:1006B000C90185759070880F991F2A7A3070359519
:1006C0002795822B089580E487B985EC86B9349B01
:1006D000FECF349A84B185B1089597B18770907F29
:1006E000892B87B9369A349BFECF24B145B1942F1C
:1006F00080E0349A30E0282B392BC901089520E09E
:1007000030E063E0482F50E0862F8A95F1F7CA0168
:10071000022E02C0880F991F0A94E2F787FF02C0D9
:10072000C39A01C0C398862F8A95F1F7C59A862F80
:100730008A95F1F7C5982F5F3F4F2830310521F793
:1007400008951F9313E0912F9A95F1F7D8DF812F29
:100750008A95F1F7C49A812F8A95F1F7812F8A95AE
:10076000F1F71A95F1F7C4981F91089588E390E086
:1007700061E043E025E01CDF089582E38A95F1F70C
:1007800008958CEB92E02AEF30E0F9013197F1F710
:100790000197D9F708950F931F93082F162F82E31F
:1007A0008A95F1F7809198018F7C80939801C9DF39
:1007B00080919801112311F08F7B01C08064809398
:1007C000980180919801BDDF12E3812F8A95F1F79E
:1007D000802F82958F7090919801907F892B8093C4
:1007E0009801AFDF812F8A95F1F7809198018061A0
:1007F00080939801A6DF812F8A95F1F78091980167
:100800008F7E809398019DDF812F8A95F1F7802F4D
:100810008F7090919801907F892B8093980191DF40
:10082000812F8A95F1F780919801806180939801DA
:1008300088DF1A95F1F7809198018F7E8093980157
:1008400080DF1F910F91089560E0A5DF08958CEB84
:1008500092E02AEF30E0F9013197F1F70197D9F7EB
:1008600081E061E098DF8CEB92E02AEF30E0F90163
:100870003197F1F70197D9F70895CF93DF93EC0102
:1008800003C060E088DF219688818823D1F7DF915B
:10089000CF910895982F662311F480E801C080EC71
:1008A000890F61E078DF089561DF83E361E073DF42
:1008B0008CEB92E02AEF30E0F9013197F1F70197E4
:1008C000D9F782E361E067DF8CEB92E02AEF30E05A
:1008D000F9013197F1F70197D9F788E261E05BDF21
:1008E0008CEB92E02AEF30E0F9013197F1F70197B4
:1008F000D9F78CE061E04FDF8CEB92E02AEF30E03B
:10090000F9013197F1F70197D9F786E061E043DF0C
:100910008CEB92E02AEF30E0F9013197F1F7019783
:10092000D9F781E061E037DF8CEB92E02AEF30E02D
:10093000F9013197F1F70197D9F78CEB92E02AEFA3
:1009400030E0F9013197F1F70197D9F70895EF9267
:10095000FF920F931F939B01AC018091990190919D
:100960009A01A0919B01B0919C01280F391F4A1F49
:100970005B1F8091990190919A01A0919B01B09188
:100980009C0179018A01E81AF90A0A0B1B0B17FF6F
:10099000F0CF1F910F91FF90EF9008958A3010F4DF
:1009A000805D0895895A0895AF92BF92CF92DF92E9
:1009B000EF92FF920F931F937B018C01D42EA22EF6
:1009C00020E836E948E950E0C4D72A3018F4822FED
:1009D000805D02C0822F895A37DFC801B70120E845
:1009E00036E948E950E0B5D7F62EE72EC82EB92EE5
:1009F00087E0D81611F000E003C08EE225DF01E0A9
:100A00006F2D7E2D8C2D9B2D20E432E44FE050E0A5
:100A1000A0D72A3018F4822F805D02C0822F895A15
:100A200013DF002311F410E005C081E08A1508F0FF
:100A3000E8C011E06F2D7E2D8C2D9B2D20E432E43B
:100A40004FE050E086D7F62EE72EC82EB92E86E06E
:100A5000D81619F48EE2F8DE01E06F2D7E2D8C2D74
:100A60009B2D20EA36E841E050E073D72A3018F495
:100A7000822F805D02C0822F895AE6DE002321F09A
:100A80001F5F1A1508F0BDC06F2D7E2D8C2D9B2D7C
:100A900020EA36E841E050E05CD7F62EE72EC82E7B
:100AA000B92E85E0D81619F48EE2CEDE01E06F2D66
:100AB0007E2D8C2D9B2D20E137E240E050E049D780
:100AC0002A3018F4822F805D02C0822F895ABCDE42
:100AD000002321F01F5F1A1508F093C06F2D7E2DA3
:100AE0008C2D9B2D20E137E240E050E032D7F62EEE
:100AF000E72EC82EB92E84E0D81619F48EE2A4DEB3
:100B000001E06F2D7E2D8C2D9B2D28EE33E040E0F3
:100B100050E01FD72A3018F4822F805D02C0822F48
:100B2000895A92DE002321F01F5F1A1508F069C070
:100B30006F2D7E2D8C2D9B2D28EE33E040E050E074
:100B400008D7F62EE72EC82EB92E83E0D81619F452
:100B50008EE27ADE01E06F2D7E2D8C2D9B2D24E61A
:100B600030E040E050E0F5D62A3018F4822F805D66
:100B700002C0822F895A68DE002321F01F5F1A15F8
:100B800008F03FC06F2D7E2D8C2D9B2D24E630E08C
:100B900040E050E0DED6F62EE72EC82EB92E82E0D9
:100BA000D81619F48EE250DE01E06F2D7E2D8C2DCB
:100BB0009B2D2AE030E040E050E0CBD62A3018F4FC
:100BC000822F805D02C0822F895A3EDE002319F0F9
:100BD0001F5F1A15B0F481E0D81611F48EE234DEEE
:100BE0006F2D7E2D8C2D9B2D2AE030E040E050E0D3
:100BF000B0D66A3018F4862F805D02C0862F895ADD
:100C000023DE1F910F91FF90EF90DF90CF90BF9068
:100C1000AF9008950F931F93CF93DF93EC0168EE8D
:100C200073E083D6662341F06A3018F4862F805D26
:100C300002C0862F895A08DECE0168EE73E075D6B1
:100C4000182F092F64E670E070D66A3018F4862FEA
:100C5000805D02C0862F895AF7DD812F902F64E6D0
:100C600070E063D6182F092F6AE070E05ED66A3014
:100C700018F4862F805D02C0862F895AE5DD812F0A
:100C8000902F6AE070E051D68A3010F4805D01C088
:100C9000895ADADDDF91CF911F910F910895EF927C
:100CA000FF920F931F937B018C0120E030E040E026
:100CB0005FE455D388237CF0C801B70120E030E021
:100CC00040E05FE45ED176D39B01AC012050304020
:100CD0004040504805C0C801B7016CD39B01AC012E
:100CE000B901CA011F910F91FF90EF900895A0E004
:100CF000B0E0ECE7F6E04FC6DC012B01FA019C9175
:100D0000923008F439C1EB018881823008F433C194
:100D1000943069F4843009F02FC111969C91119799
:100D20008981981709F428C1AAE8B0E025C1843068
:100D300009F421C18230A9F4923009F01DC19A0151
:100D4000AD0188E0EA010990AE01E90109929E0136
:100D50008150C1F7E201898111969C918923818399
:100D600008C1923009F407C112962D903C90139758
:100D7000EB018A819B811496AD90BD90CD90DC9063
:100D80001797EC80FD800E811F819101281B390B84
:100D9000B90137FF04C066277727621B730B6032E7
:100DA00071050CF061C0121613066CF5370148018D
:100DB000062E04C096948794779467940A94D2F789
:100DC00021E030E040E050E004C0220F331F441F18
:100DD000551F6A95D2F721503040404050402E2197
:100DE0003F2140235123211531054105510521F0B3
:100DF00021E030E040E050E079018A01E628F72860
:100E0000082919293CC0232BD1F1260E371E3501A4
:100E10004601062E04C096948794779467940A94AA
:100E2000D2F721E030E040E050E004C0220F331F51
:100E3000441F551F6A95D2F7215030404040504022
:100E40002A213B214C215D21211531054105510508
:100E500021F021E030E040E050E059016A01A6288D
:100E6000B728C828D9280BC0821593052CF01C017F
:100E7000AA24BB24650103C0EE24FF248701119638
:100E80009C91D20111968C91981709F445C0992331
:100E900039F0A80197012A193B094C095D0906C0E0
:100EA000A60195012E193F09400B510B57FD08C0B3
:100EB00011823382228224833583468357831DC067
:100EC00081E081833382228288279927DC01821B7B
:100ED000930BA40BB50B84839583A683B7830DC0B6
:100EE000220F331F441F551F2483358346835783A6
:100EF0008281938101979383828324813581468106
:100F00005781DA01C9010197A109B1098F5F9F4F8C
:100F1000AF4FBF4328F30BC0918333822282EA0C88
:100F2000FB1C0C1D1D1DE482F5820683178383E0E4
:100F30008083248135814681578157FF1AC0C901BA
:100F4000AA2797FDA095BA2F81709070A070B070FD
:100F50005695479537952795822B932BA42BB52B28
:100F600084839583A683B78382819381019693833B
:100F70008283DF0101C0D201CD01CDB7DEB7E2E14E
:100F800026C5A0E2B0E0E6ECF7E011C569837A83FC
:100F90008B839C832D833E834F835887E9E0EE2E1D
:100FA000F12CEC0EFD1ECE010196B701EDD38E01A2
:100FB0000F5E1F4FCE010596B801E6D38A8991E0F6
:100FC00089278A8BC701B801AE01475E5F4F8FDE6C
:100FD00006D3A096E6E007C5A0E2B0E0E1EFF7E0B7
:100FE000E6C469837A838B839C832D833E834F83FE
:100FF0005887F9E0EF2EF12CEC0EFD1ECE01019684
:10100000B701C2D38E010F5E1F4FCE010596B80106
:10101000BBD3C701B801AE01475E5F4F68DEDFD2C8
:10102000A096E6E0E0C4A0E2B0E0E8E1F8E0B3C4F6
:1010300069837A838B839C832D833E834F83588778
:10104000CE010196BE01675F7F4F9ED3CE0105960C
:10105000BE016F5E7F4F98D39985923088F0898961
:101060008230C8F0943019F4823051F404C08430D6
:1010700029F4923081F48AE890E0C6C0923049F4B5
:1010800020E09A858A89981321E02A87CE01099663
:10109000BBC0823049F420E09A858A89981321E008
:1010A0002A8BCE014196B0C02D843E844F8458884F
:1010B0006D887E888F88988CEE24FF248701AA246F
:1010C000BB24650140E050E060E070E0E0E0F0E06B
:1010D000C10181709070892BE9F0E60CF71C081DA6
:1010E000191D9A01AB012A0D3B1D4C1D5D1D80E0B1
:1010F00090E0A0E0B0E0E614F7040805190520F43C
:1011000081E090E0A0E0B0E0BA01A901480F591FCA
:101110006A1F7B1FAA0CBB1CCC1CDD1C97FE08C0E1
:1011200081E090E0A0E0B0E0A82AB92ACA2ADB2A30
:101130003196E032F10549F0660C771C881C991C49
:101140005694479437942794C3CFFA85EA892B891C
:101150003C898B859C85280F391F2E5F3F4F17C018
:10116000CA0181709070892B61F016950795F794EC
:10117000E79480E090E0A0E0B0E8E82AF92A0A2BA2
:101180001B2B76956795579547952F5F3F4F77FDBA
:10119000E7CF0CC0440F551F661F771F17FD416036
:1011A000EE0CFF1C001F111F21503040403090E01A
:1011B000590790E0690790E4790760F32B8F3C8F23
:1011C000DB01CA018F779070A070B07080349105F8
:1011D000A105B10561F447FD0AC0E114F104010560
:1011E000110529F0405C5F4F6F4F7F4F40781A8E9A
:1011F000FE1711F081E08A8F4D8F5E8F6F8F78A37D
:1012000083E0898FCE014996EAD1A096E2E1DFC35F
:10121000A8E1B0E0EDE0F9E0C6C369837A838B838F
:101220009C832D833E834F835887B9E0EB2EF12CAE
:10123000EC0EFD1ECE010196B701A6D28E010F5E07
:101240001F4FCE010596B8019FD22985223008F4A0
:101250007EC03989323010F4B8017CC08A859A8901
:1012600089278A87243011F0223031F4231709F0BE
:101270006EC06AE870E06EC0343039F41D861E8698
:101280001F86188A1C861B8604C0323021F484E035
:101290008987B7015FC02B853C858B899C89281B7A
:1012A000390B3C872B87ED84FE840F851889AD8828
:1012B000BE88CF88D88CEA14FB040C051D0540F4C9
:1012C000EE0CFF1C001F111F215030403C872B8764
:1012D00020E030E040E050E080E090E0A0E0B0E4CA
:1012E00060E070E0EA14FB040C051D0540F0282BBB
:1012F000392B4A2B5B2BEA18FB080C091D09B69504
:10130000A79597958795EE0CFF1C001F111F6F5F27
:101310007F4F6F31710531F7DA01C9018F77907016
:10132000A070B07080349105A105B10561F427FD6E
:101330000AC0E114F1040105110529F0205C3F4FBA
:101340004F4F5F4F20782D873E874F87588BBE01C8
:10135000675F7F4FCB0143D16896EAE040C3A8E1C5
:10136000B0E0E4EBF9E023C369837A838B839C8349
:101370002D833E834F83588789E0E82EF12CEC0EB5
:10138000FD1ECE010196B701FFD18E010F5E1F4FEA
:10139000CE010596B801F8D18985823038F0898967
:1013A000823020F0C701B80167D201C08FEF689684
:1013B000E6E019C3ACE0B0E0EFEDF9E0FCC2698310
:1013C0007A838B839C83CE010196BE016B5F7F4F36
:1013D000DBD18D81823061F1823050F1843021F493
:1013E0008E81882351F12EC02F81388537FD20C092
:1013F0006E812F3131051CF06623F9F023C08EE198
:1014000090E0821B930B29853A854B855C8504C04F
:1014100056954795379527958A95D2F76623B1F06B
:1014200050954095309521953F4F4F4F5F4F0EC0DF
:1014300020E030E040E050E009C02FEF3FEF4FEFF9
:101440005FE704C020E030E040E050E8B901CA01A5
:101450002C96E2E0CCC2A8E0B0E0E0E3FAE0A3C260
:101460007B018C01611571058105910519F482E0FC
:1014700089835FC083E089838EE1C82ED12CDC8212
:10148000CB82ED82FE820F831887C801B70158D046
:10149000FC013197F7FF3BC0222733272E1B3F0B60
:1014A00057016801022E04C0D694C794B794A7943C
:1014B0000A94D2F740E050E060E070E081E090E014
:1014C000A0E0B0E004C0880F991FAA1FBB1F2A9597
:1014D000D2F70197A109B1098E219F21A023B12341
:1014E0000097A105B10521F041E050E060E070E017
:1014F0004A295B296C297D294D835E836F83788718
:101500008EE190E08E1B9F0B9C838B8312C03097E3
:1015100081F00E2E04C0EE0CFF1C001F111F0A9458
:10152000D2F7ED82FE820F831887CE1ADF0ADC82A3
:10153000CB821A82CE01019652D02896EAE04FC2A1
:10154000EF92FF920F931F937B018C0180E0E816CE
:1015500080E0F80681E0080780E0180788F48FEF44
:10156000E816F1040105110531F028F088E090E05B
:10157000A0E0B0E017C080E090E0A0E0B0E012C0D2
:1015800080E0E81680E0F80680E0080781E01807B0
:1015900028F088E190E0A0E0B0E004C080E190E0B5
:1015A000A0E0B0E020E230E040E050E0281B390B42
:1015B0004A0B5B0B04C016950795F794E7948A9540
:1015C000D2F7F701EE56FF4F8081281B3109410900
:1015D0005109C9011F910F91FF90EF900895DF927B
:1015E000EF92FF920F931F93FC01E480F580068138
:1015F0001781D1808081823048F480E090E0A0E1C2
:10160000B0E0E82AF92A0A2B1B2BA5C0843009F484
:101610009FC0823021F4EE24FF24870105C0E1142D
:10162000F1040105110519F4E0E0F0E096C06281D3
:1016300073819FEF623879070CF05BC022E83FEFBF
:10164000261B370B2A3131052CF020E030E040E03A
:1016500050E02AC0B801A701022E04C07695679514
:10166000579547950A94D2F781E090E0A0E0B0E06A
:1016700004C0880F991FAA1FBB1F2A95D2F7019794
:10168000A109B1098E219F21A023B1230097A105B3
:10169000B10521F081E090E0A0E0B0E09A01AB015B
:1016A000282B392B4A2B5B2BDA01C9018F779070DD
:1016B000A070B07080349105A105B10539F427FF01
:1016C00009C0205C3F4F4F4F5F4F04C0215C3F4F2C
:1016D0004F4F5F4FE0E0F0E02030A0E03A07A0E09D
:1016E0004A07A0E45A0710F0E1E0F0E079018A012E
:1016F00027C06038710564F5FB01E158FF4FD80140
:10170000C7018F779070A070B07080349105A105EB
:10171000B10539F4E7FE0DC080E490E0A0E0B0E050
:1017200004C08FE390E0A0E0B0E0E80EF91E0A1FCD
:101730001B1F17FF05C016950795F794E794319680
:1017400087E016950795F794E7948A95D1F705C039
:10175000EE24FF248701EFEFF0E06E2F67956627F8
:101760006795902F9F77D794DD24D7948E2F8695F9
:10177000492F462B582F5D29B701CA011F910F91A0
:10178000FF90EF90DF900895FC01DB0140815181D3
:101790002281622F6F7770E0221F2227221F938100
:1017A000892F880F822B282F30E0991F9927991FA6
:1017B00011969C93119721153105A9F541155105F5
:1017C0006105710511F482E037C082E89FEF13963E
:1017D0009C938E9312979A01AB0167E0220F331FFF
:1017E000441F551F6A95D1F783E08C930DC0220FDB
:1017F000331F441F551F12968D919C91139701978B
:1018000013969C938E931297203080E0380780E0E7
:10181000480780E4580758F314962D933D934D9351
:101820005C93179708952F3F310579F441155105C1
:101830006105710519F484E08C93089564FF03C079
:1018400081E08C9312C01C9210C02F573040139629
:101850003C932E93129783E08C9387E0440F551F9F
:10186000661F771F8A95D1F7706414964D935D9328
:101870006D937C93179708951F93DC01FB019C9156
:10188000923008F447C08081823008F443C094301D
:1018900051F411961C91843099F58181682F70E084
:1018A000611B71093FC0843021F0923031F48230E5
:1018B000B9F18181882389F12DC011961C9111976E
:1018C0008230F1F081811817D9F412962D913C9154
:1018D0001397828193818217930794F02817390711
:1018E000BCF014968D919D910D90BC91A02D2481FA
:1018F000358146815781281739074A075B0718F455
:10190000112341F00AC082179307A407B50740F4DA
:10191000112319F061E070E005C06FEF7FEF02C0A6
:1019200060E070E0CB011F910895AA1BBB1B51E141
:1019300007C0AA1FBB1FA617B70710F0A61BB70B3F
:10194000881F991F5A95A9F780959095BC01CD01E4
:101950000895A1E21A2EAA1BBB1BFD010DC0AA1FF0
:10196000BB1FEE1FFF1FA217B307E407F50720F008
:10197000A21BB30BE40BF50B661F771F881F991F83
:101980001A9469F760957095809590959B01AC01CC
:10199000BD01CF0108952F923F924F925F926F92B7
:1019A0007F928F929F92AF92BF92CF92DF92EF92EF
:1019B000FF920F931F93CF93DF93CDB7DEB7CA1B70
:1019C000DB0B0FB6F894DEBF0FBECDBF09942A889B
:1019D000398848885F846E847D848C849B84AA8443
:1019E000B984C884DF80EE80FD800C811B81AA81D0
:1019F000B981CE0FD11D0FB6F894DEBF0FBECDBF9B
:081A0000ED010895F894FFCFF9
:101A08004B487A00202020202020004D487A0020D2
:101A18002020202000487A0020202020202020207C
:101A28000020006D5620006D4100000000000000FD
:101A38000000000102020303030304040404040475
:101A48000404050505050505050505050505050540
:101A58000505060606060606060606060606060620
:101A6800060606060606060606060606060606060E
:101A780006060707070707070707070707070707F0
:101A880007070707070707070707070707070707DE
:101A980007070707070707070707070707070707CE
:101AA80007070707070707070707070707070707BE
:101AB80007070808080808080808080808080808A0
:101AC800080808080808080808080808080808088E
:101AD800080808080808080808080808080808087E
:101AE800080808080808080808080808080808086E
:101AF800080808080808080808080808080808085E
:101B0800080808080808080808080808080808084D
:101B1800080808080808080808080808080808083D
:101B2800080808080808080808080808080808082D
:021B380008089B
:00000001FF
