:0200000012C02C
:14002600CFEDD0E0CDBFDEBFC051D0400AEA08830024E0E6A7
:14003A00F0E010E0E036F10711F00192FBCF0083E6E2F0E06B
:14004E00A0E6B0E010E0E632F10721F0C89531960D92F9CFEC
:140062001CD0FFCF01E006C021E001C023952223E9F70395F2
:140076000023C1F7089543D0402F512F01E010E0242F352F74
:14008A0053D0202E312E2094309428BAE7DF38D008958FEF4F
:14009E0087BB88BB2EC044275527042F152FE7DF4F5F5F4F5B
:1400B2004830E0E05E07BCF348E050E0042F152FDCDF4150D3
:1400C60050402224332424163506B4F344275527042F152F7F
:1400DA00D0DF4E5F5F4F4830E0E05E07BCF347E050E0042F32
:1400EE00152FC5DF425050402224332424163506B4F3D1CF9B
:1401020008955A934A930895E1E049915991E0FD08956991EC
:140116007991E1FD0895A990B990E2FD0895C990D990E3FDB0
:14012A000895E990F9900895222321F0000F111F2A95FACF68
:02013E00089522
:00000001FF
