:1000000012C0189518951895189518951895189563
:100010001895189518951895189518951895189578
:100020001895189518958FED8DBFC0ECE8EB4E2E06
:10003000DD275D2EEEE7F0E0A0E6B0E088278D93A7
:100040003197E9F7662484B7877F84BF88E181BD53
:1000500080E081BD83E08ABB83E087BB8FE781BB03
:1000600080E08BBB8CEF88BB80E182BBA6E38C91E8
:1000700083FBE6F3CDD019D100916600003909F079
:100080002DC000916700043009F007C08CEF809309
:10009000680081E080936C0020C0053009F007C043
:1000A00082E58093680081E080936C0016C0063082
:1000B00009F007C08CE58093680081E080936C00B4
:1000C0000CC0073009F009C08AE6809368008FEF02
:1000D0008093690082E080936C005BC0013909F075
:1000E00023C000916700023009F007C08EED8093B5
:1000F000680081E080936C0016C0063009F007C0EC
:100100008EED8093680081E080936C000CC082E6E5
:10011000809368008FED809369008FEF80936A0071
:1001200083E080936C0035C000916600023981E065
:1001300008F480E08F9300916600033981E010F0AD
:1001400009F080E09F918923882309F40DC082E69D
:10015000809368008FED809369008FEF80936A0031
:1001600083E080936C0015C0B2990AC082E5809349
:1001700068008FED8093690082E080936C0009C075
:100180006DD2969A41D0B39903C081B5886081BD84
:10019000FACFB49901C09AD1BCD0ABE68C9187FB61
:1001A0000EF001C0E5D034D1A5E68C918F5F8C9321
:1001B000009165000A3009F001C005C0ABE68C91E2
:1001C00086FB0EF0EACF4AD2ABE68C9186FB0EF0AE
:1001D00002C0C19A12C0969A17D0969815D0ABE675
:1001E0008C9187FB0EF404C0C19A0ED0C1980CD03C
:1001F000A6E30C9103FB0EF4EECF06D0B39903C037
:1002000081B5886081BDFACF8AEF90E036D208953B
:100210009498EF93FF93E4E2F0E026D2FF91EF9100
:10022000C09AEF93FF93E0E1F0E01ED2FF91EF91CF
:1002300095988FE581BBD89882E08ABBEF93FF93B6
:10024000E0EFF1E011D2FF91EF91089580E080930B
:100250006D00919A000000000000000000009198DD
:1002600000000000000000000000ADE68C918F5FF0
:100270008C9300916D00003109F0EBCF000000007D
:10028000000000000000939A000000000000000041
:100290000000939808950000000000000000000096
:1002A000A9E38C9180FBE6F7089588E080936000D5
:1002B0008CE48093610034D181E0809360008CE015
:1002C000809361002DD180E08093600088E6809368
:1002D000610026D18CE68093610054D18091620048
:1002E0008093660082E0809360008CE080936100E0
:1002F00017D180E08093600088E68093610010D180
:100300008CE6809361003ED180916200809367000B
:10031000089584E0809360008CE48093610000D1B4
:1003200080E08093600088E780936100F9D08CE7DB
:100330008093610027D180916B00806880936B006F
:10034000A2E60C9101FB81E00EF480E08F93A2E61F
:100350000C9100FB81E00EF480E09F91892B8823B3
:1003600009F405C080916B008F7780936B0008952E
:1003700080E4809360008CE480936100D1D0809110
:100380006800809360008CE280936100C9D080E0B7
:100390008093600084E680936100C2D08CE68093F5
:1003A0006100BED078DF00916C00013010F009F0E0
:1003B00001C014C080916900809360008CE280933A
:1003C0006100AED080E08093600084E7809361009C
:1003D000A7D08CE780936100A3D05DDF00916C0013
:1003E000033009F014C080916A00809360008CE2B1
:1003F0008093610095D080E08093600086E68093D2
:1004000061008ED08EE6809361008AD044DF08952B
:1004100080916B00806480936B0084E08093600027
:100420008CE4809361007CD080E08093600088E65B
:100430008093610075D08CE680936100A3D04091D9
:10044000680000916200041709F405C080916B00F8
:100450008F7B80936B0000916C00013010F009F0ED
:1004600001C017C080E0809360008AE7809361003C
:1004700057D08EE78093610085D04091690000914C
:100480006200041709F405C080916B008F7B809394
:100490006B0000916C00033009F017C080E080937E
:1004A00060008AE6809361003BD08EE68093610015
:1004B00069D040916A0000916200041709F405C0F8
:1004C00080916B008F7B80936B00089580E8809310
:1004D00060008CE48093610023D080E08093600012
:1004E00084E6809361001CD08CE68093610018D074
:1004F000D2DE00916600003981E009F080E08F9340
:1005000000916700063081E009F080E09F91892327
:10051000882309F404C08CE48093610001D008951D
:100520009298D99893DE88E080936300809163006D
:10053000815080936300A3E68C91A0E6B7D0ACD045
:100540000C900822689409F4E894A2E38C9182F953
:100550008C93A3E68C91A1E6A9D09ED00C900822A2
:10056000689409F4E894ABE38C9181F98C936EDE86
:1005700000916300003009F0D9CF9298D99866DED7
:1005800065DE08959298D99861DEA9E38C9180FB8D
:10059000A2E68C9187F98C9388E08093630087E0D2
:1005A0008093640080916300815080936300809108
:1005B0006400815080936400A3E68C91A0E676D01D
:1005C0006BD00C900822689409F4E894A2E38C9113
:1005D00082F98C93A3E68C91A1E668D05DD00C9053
:1005E0000822689409F4E894ABE38C9181F98C9328
:1005F0002DDEA9E38C9180FBA4E68C91A2E656D077
:100600004BD00C9016F0092201C0082A0C920091E0
:100610006400003009F0C6CFA3E68C91A0E646D076
:100620003BD00C900822689409F4E894A2E38C91E2
:1006300082F98C93A3E68C91A1E638D02DD00C9052
:100640000822689409F4E894ABE38C9181F98C93C7
:10065000FDDD9298D998FADDF9DD0895C0988AE019
:1006600090E00BD0949A08953197F1F7089568942B
:1006700062F80895E89462F80895EF93FF93EE27E7
:10068000E82BE92B31F0E8EEF3E03197F1F7019731
:10069000D1F7FF91EF91089591E0882321F088949C
:1006A000991F8A95E9F7892F90950895883018F059
:0806B00011968850FBCF08955C
:00000001FF
